{
  "contractName": "BNB333",
  "abi": [
    {
      "inputs": [
        {
          "internalType": "address payable",
          "name": "_developerAccount",
          "type": "address"
        },
        {
          "internalType": "address payable",
          "name": "_reserveAccount",
          "type": "address"
        },
        {
          "internalType": "address payable",
          "name": "_marketingAccount",
          "type": "address"
        }
      ],
      "payable": false,
      "stateMutability": "nonpayable",
      "type": "constructor"
    },
    {
      "anonymous": false,
      "inputs": [
        {
          "indexed": true,
          "internalType": "address",
          "name": "_address",
          "type": "address"
        },
        {
          "indexed": false,
          "internalType": "uint256",
          "name": "plan",
          "type": "uint256"
        }
      ],
      "name": "onInvest",
      "type": "event"
    },
    {
      "anonymous": false,
      "inputs": [
        {
          "indexed": true,
          "internalType": "address",
          "name": "_address",
          "type": "address"
        }
      ],
      "name": "onNewbie",
      "type": "event"
    },
    {
      "anonymous": false,
      "inputs": [
        {
          "indexed": false,
          "internalType": "uint256",
          "name": "_indexRing",
          "type": "uint256"
        }
      ],
      "name": "onStackComplete",
      "type": "event"
    },
    {
      "anonymous": false,
      "inputs": [
        {
          "indexed": true,
          "internalType": "address",
          "name": "_address",
          "type": "address"
        },
        {
          "indexed": false,
          "internalType": "uint256",
          "name": "_ringIndexInvested",
          "type": "uint256"
        },
        {
          "indexed": false,
          "internalType": "uint256",
          "name": "_investmentIndex",
          "type": "uint256"
        },
        {
          "indexed": false,
          "internalType": "uint256",
          "name": "_plan",
          "type": "uint256"
        }
      ],
      "name": "onWithdraw",
      "type": "event"
    },
    {
      "constant": true,
      "inputs": [],
      "name": "DEVELOPER_RATE",
      "outputs": [
        {
          "internalType": "uint256",
          "name": "",
          "type": "uint256"
        }
      ],
      "payable": false,
      "stateMutability": "view",
      "type": "function"
    },
    {
      "constant": true,
      "inputs": [],
      "name": "MARKETING_RATE",
      "outputs": [
        {
          "internalType": "uint256",
          "name": "",
          "type": "uint256"
        }
      ],
      "payable": false,
      "stateMutability": "view",
      "type": "function"
    },
    {
      "constant": true,
      "inputs": [],
      "name": "MAX_INVESTORS",
      "outputs": [
        {
          "internalType": "uint256",
          "name": "",
          "type": "uint256"
        }
      ],
      "payable": false,
      "stateMutability": "view",
      "type": "function"
    },
    {
      "constant": true,
      "inputs": [],
      "name": "PENALTY_STEP",
      "outputs": [
        {
          "internalType": "uint256",
          "name": "",
          "type": "uint256"
        }
      ],
      "payable": false,
      "stateMutability": "view",
      "type": "function"
    },
    {
      "constant": true,
      "inputs": [],
      "name": "PERCENTS_DIVIDER",
      "outputs": [
        {
          "internalType": "uint256",
          "name": "",
          "type": "uint256"
        }
      ],
      "payable": false,
      "stateMutability": "view",
      "type": "function"
    },
    {
      "constant": true,
      "inputs": [],
      "name": "REFERRER_CODE",
      "outputs": [
        {
          "internalType": "uint256",
          "name": "",
          "type": "uint256"
        }
      ],
      "payable": false,
      "stateMutability": "view",
      "type": "function"
    },
    {
      "constant": true,
      "inputs": [],
      "name": "RESERVE_RATE",
      "outputs": [
        {
          "internalType": "uint256",
          "name": "",
          "type": "uint256"
        }
      ],
      "payable": false,
      "stateMutability": "view",
      "type": "function"
    },
    {
      "constant": true,
      "inputs": [
        {
          "internalType": "address",
          "name": "",
          "type": "address"
        }
      ],
      "name": "address2index",
      "outputs": [
        {
          "internalType": "uint256",
          "name": "",
          "type": "uint256"
        }
      ],
      "payable": false,
      "stateMutability": "view",
      "type": "function"
    },
    {
      "constant": true,
      "inputs": [],
      "name": "developerAccount",
      "outputs": [
        {
          "internalType": "address payable",
          "name": "",
          "type": "address"
        }
      ],
      "payable": false,
      "stateMutability": "view",
      "type": "function"
    },
    {
      "constant": true,
      "inputs": [
        {
          "internalType": "uint256",
          "name": "",
          "type": "uint256"
        }
      ],
      "name": "index2Investment",
      "outputs": [
        {
          "internalType": "uint256",
          "name": "indexInvestment",
          "type": "uint256"
        },
        {
          "internalType": "uint256",
          "name": "indexInvestor",
          "type": "uint256"
        },
        {
          "internalType": "uint256",
          "name": "stackIndex",
          "type": "uint256"
        },
        {
          "internalType": "uint256",
          "name": "investmentDate",
          "type": "uint256"
        },
        {
          "internalType": "bool",
          "name": "payed",
          "type": "bool"
        },
        {
          "internalType": "uint256",
          "name": "position",
          "type": "uint256"
        }
      ],
      "payable": false,
      "stateMutability": "view",
      "type": "function"
    },
    {
      "constant": true,
      "inputs": [
        {
          "internalType": "uint256",
          "name": "",
          "type": "uint256"
        }
      ],
      "name": "index2Investor",
      "outputs": [
        {
          "internalType": "address payable",
          "name": "addr",
          "type": "address"
        },
        {
          "internalType": "uint256",
          "name": "referrer",
          "type": "uint256"
        },
        {
          "internalType": "uint256",
          "name": "earningsReferrals",
          "type": "uint256"
        }
      ],
      "payable": false,
      "stateMutability": "view",
      "type": "function"
    },
    {
      "constant": true,
      "inputs": [],
      "name": "insuranceFunds",
      "outputs": [
        {
          "internalType": "uint256",
          "name": "",
          "type": "uint256"
        }
      ],
      "payable": false,
      "stateMutability": "view",
      "type": "function"
    },
    {
      "constant": true,
      "inputs": [],
      "name": "lastPayment",
      "outputs": [
        {
          "internalType": "uint256",
          "name": "",
          "type": "uint256"
        }
      ],
      "payable": false,
      "stateMutability": "view",
      "type": "function"
    },
    {
      "constant": true,
      "inputs": [],
      "name": "latestReferredCode",
      "outputs": [
        {
          "internalType": "uint256",
          "name": "",
          "type": "uint256"
        }
      ],
      "payable": false,
      "stateMutability": "view",
      "type": "function"
    },
    {
      "constant": true,
      "inputs": [],
      "name": "marketingAccount",
      "outputs": [
        {
          "internalType": "address payable",
          "name": "",
          "type": "address"
        }
      ],
      "payable": false,
      "stateMutability": "view",
      "type": "function"
    },
    {
      "constant": true,
      "inputs": [
        {
          "internalType": "uint8",
          "name": "",
          "type": "uint8"
        }
      ],
      "name": "plan2amount",
      "outputs": [
        {
          "internalType": "uint256",
          "name": "",
          "type": "uint256"
        }
      ],
      "payable": false,
      "stateMutability": "view",
      "type": "function"
    },
    {
      "constant": true,
      "inputs": [],
      "name": "reserveAccount",
      "outputs": [
        {
          "internalType": "address payable",
          "name": "",
          "type": "address"
        }
      ],
      "payable": false,
      "stateMutability": "view",
      "type": "function"
    },
    {
      "constant": true,
      "inputs": [],
      "name": "totalStaked",
      "outputs": [
        {
          "internalType": "uint256",
          "name": "",
          "type": "uint256"
        }
      ],
      "payable": false,
      "stateMutability": "view",
      "type": "function"
    },
    {
      "constant": false,
      "inputs": [
        {
          "internalType": "uint256",
          "name": "_stackId",
          "type": "uint256"
        },
        {
          "internalType": "uint256",
          "name": "_investmentId",
          "type": "uint256"
        }
      ],
      "name": "withdraw",
      "outputs": [],
      "payable": false,
      "stateMutability": "nonpayable",
      "type": "function"
    },
    {
      "constant": false,
      "inputs": [
        {
          "internalType": "uint8",
          "name": "_plan",
          "type": "uint8"
        },
        {
          "internalType": "uint256",
          "name": "_referrer",
          "type": "uint256"
        }
      ],
      "name": "invest",
      "outputs": [],
      "payable": true,
      "stateMutability": "payable",
      "type": "function"
    },
    {
      "constant": false,
      "inputs": [
        {
          "internalType": "uint256",
          "name": "_indexStack",
          "type": "uint256"
        }
      ],
      "name": "changeOnStack",
      "outputs": [],
      "payable": false,
      "stateMutability": "nonpayable",
      "type": "function"
    },
    {
      "constant": true,
      "inputs": [
        {
          "internalType": "uint256",
          "name": "_indexInvestment",
          "type": "uint256"
        }
      ],
      "name": "getInfoInvestment",
      "outputs": [
        {
          "internalType": "uint256",
          "name": "",
          "type": "uint256"
        },
        {
          "internalType": "uint256",
          "name": "",
          "type": "uint256"
        },
        {
          "internalType": "uint256",
          "name": "",
          "type": "uint256"
        },
        {
          "internalType": "bool",
          "name": "",
          "type": "bool"
        },
        {
          "internalType": "uint256",
          "name": "",
          "type": "uint256"
        }
      ],
      "payable": false,
      "stateMutability": "view",
      "type": "function"
    },
    {
      "constant": true,
      "inputs": [
        {
          "internalType": "uint256",
          "name": "_indexStack",
          "type": "uint256"
        }
      ],
      "name": "getInfoStack",
      "outputs": [
        {
          "internalType": "uint256",
          "name": "",
          "type": "uint256"
        },
        {
          "internalType": "uint256",
          "name": "",
          "type": "uint256"
        },
        {
          "internalType": "uint256",
          "name": "",
          "type": "uint256"
        },
        {
          "internalType": "uint256[]",
          "name": "",
          "type": "uint256[]"
        },
        {
          "internalType": "uint256",
          "name": "",
          "type": "uint256"
        },
        {
          "internalType": "uint256",
          "name": "",
          "type": "uint256"
        },
        {
          "internalType": "bool",
          "name": "",
          "type": "bool"
        },
        {
          "internalType": "uint256",
          "name": "",
          "type": "uint256"
        }
      ],
      "payable": false,
      "stateMutability": "view",
      "type": "function"
    },
    {
      "constant": true,
      "inputs": [],
      "name": "getActivePlans",
      "outputs": [
        {
          "internalType": "bool[]",
          "name": "",
          "type": "bool[]"
        }
      ],
      "payable": false,
      "stateMutability": "view",
      "type": "function"
    },
    {
      "constant": true,
      "inputs": [],
      "name": "getInvestedPlans",
      "outputs": [
        {
          "internalType": "uint256[]",
          "name": "",
          "type": "uint256[]"
        }
      ],
      "payable": false,
      "stateMutability": "view",
      "type": "function"
    },
    {
      "constant": true,
      "inputs": [],
      "name": "getContractBalance",
      "outputs": [
        {
          "internalType": "uint256",
          "name": "",
          "type": "uint256"
        }
      ],
      "payable": false,
      "stateMutability": "view",
      "type": "function"
    },
    {
      "constant": true,
      "inputs": [
        {
          "internalType": "uint256",
          "name": "_indexInvestor",
          "type": "uint256"
        }
      ],
      "name": "getTotalInvested",
      "outputs": [
        {
          "internalType": "uint256",
          "name": "",
          "type": "uint256"
        }
      ],
      "payable": false,
      "stateMutability": "view",
      "type": "function"
    },
    {
      "constant": true,
      "inputs": [],
      "name": "getReferralInformation",
      "outputs": [
        {
          "internalType": "uint256",
          "name": "",
          "type": "uint256"
        },
        {
          "internalType": "uint256",
          "name": "",
          "type": "uint256"
        }
      ],
      "payable": false,
      "stateMutability": "view",
      "type": "function"
    },
    {
      "constant": true,
      "inputs": [],
      "name": "getIndexInvestor",
      "outputs": [
        {
          "internalType": "uint256",
          "name": "",
          "type": "uint256"
        }
      ],
      "payable": false,
      "stateMutability": "view",
      "type": "function"
    },
    {
      "constant": true,
      "inputs": [],
      "name": "getTotalStaked",
      "outputs": [
        {
          "internalType": "uint256",
          "name": "",
          "type": "uint256"
        }
      ],
      "payable": false,
      "stateMutability": "view",
      "type": "function"
    },
    {
      "constant": true,
      "inputs": [],
      "name": "getInsuranceFunds",
      "outputs": [
        {
          "internalType": "uint256",
          "name": "",
          "type": "uint256"
        }
      ],
      "payable": false,
      "stateMutability": "view",
      "type": "function"
    }
  ],
  "bytecode": "0x60806040523480156200001157600080fd5b506040516200275a3803806200275a833981810160405260608110156200003757600080fd5b5080516020820151604090920151600080546001600160a01b038085166001600160a01b031992831617909255600280548387169083161790556001805492841692909116919091179055610fa06006556103e8600c55909190620000a46001600160e01b03620000ad16565b5050506200047f565b600a6020526702c68af0bb1400007fbbc70db1b6c7afd11e79c0fb0051300458f1a3acb8ee9789d9b6b26c61ad9bc7556706f05b59d3b200007fbff4442b8ed600beeb8e26b1279a0f0d14c6edfaec26d968ee13c86f7d4c2ba855670de0b6b3a7640000600080516020620026da83398151915255674563918244f40000600080516020620026fa83398151915255678ac7230489e800006000805160206200271a833981519152556802b5e3af16b18800006000805160206200273a8339815191525560008080527f13da86008ba1c6922daee3e07db95305ef49ebced9f5467a0b8613fcc6b343e354620001ad91806001600160e01b036200033516565b60016000819052600a6020527fbbc70db1b6c7afd11e79c0fb0051300458f1a3acb8ee9789d9b6b26c61ad9bc754620001f99167058d15e176280000906001600160e01b036200033516565b60026000819052600a6020527fbff4442b8ed600beeb8e26b1279a0f0d14c6edfaec26d968ee13c86f7d4c2ba8546200024591671158e460913d0000906001600160e01b036200033516565b60036000819052600a602052600080516020620026da8339815191525462000280916722b1c8c1227a0000906001600160e01b036200033516565b60046000819052600a602052600080516020620026fa83398151915254620002bb9167ad78ebc5ac620000906001600160e01b036200033516565b60056000819052600a6020526000805160206200271a83398151915254620002f79168015af1d78b58c40000906001600160e01b036200033516565b60066000819052600a6020526000805160206200273a8339815191525462000333916806c6b935b8bbd40000906001600160e01b036200033516565b565b6040805160e08101825282815260208082018690528183018590528251600380825260808201909452600b9360608085019383019080388339505050815260036020808301829052426040808501919091526000606094850181905286546001808201808a559883529184902087516007909202019081558684015191810191909155908501516002820155928401518051620003da9385019291909101906200040f565b506080820151600482015560a0820151600582015560c0909101516006909101805460ff191691151591909117905550505050565b8280548282559060005260206000209081019282156200044d579160200282015b828111156200044d57825182559160200191906001019062000430565b506200045b9291506200045f565b5090565b6200047c91905b808211156200045b576000815560010162000466565b90565b61224b806200048f6000396000f3fe6080604052600436106101d85760003560e01c80636f9fb98a11610102578063b36deed011610095578063e1f2549c11610064578063e1f2549c146105ff578063ec0042051461065e578063f5964742146106b5578063f6ec91d5146106ca576101d8565b8063b36deed0146105ab578063d2ccac17146105c0578063d6a63c9f14610308578063dc184e70146105ea576101d8565b806383b6cc16116100d157806383b6cc161461054657806390d98e7e1461055b578063a62e64a314610570578063a77a517314610596576101d8565b80636f9fb98a146104d6578063817b1cd2146104eb57806381e170de1461050057806383ac44e614610515576101d8565b806328e7cef51161017a5780634f437b82116101495780634f437b82146104175780635e78b2ee146104695780636a34480b146104975780636e50f723146104ac576101d8565b806328e7cef5146103085780632eae46ae1461031d57806343fe832c146103d0578063441a3e70146103e5576101d8565b806309aca697116101b657806309aca6971461024657806314dd60ce146102ab5780631e2575c3146102c057806325ccbc43146102f3576101d8565b806301c234a8146101dd57806304819e7b146102045780630917e77614610231575b600080fd5b3480156101e957600080fd5b506101f26106df565b60408051918252519081900360200190f35b34801561021057600080fd5b506101f26004803603602081101561022757600080fd5b503560ff166106e5565b34801561023d57600080fd5b506101f26106f7565b34801561025257600080fd5b5061025b6106fe565b60408051602080825283518183015283519192839290830191858101910280838360005b8381101561029757818101518382015260200161027f565b505050509050019250505060405180910390f35b3480156102b757600080fd5b506101f2610808565b3480156102cc57600080fd5b506101f2600480360360208110156102e357600080fd5b50356001600160a01b031661080e565b3480156102ff57600080fd5b506101f2610820565b34801561031457600080fd5b506101f2610826565b34801561032957600080fd5b506103476004803603602081101561034057600080fd5b503561082c565b604051808981526020018881526020018781526020018060200186815260200185815260200184151515158152602001838152602001828103825287818151815260200191508051906020019060200280838360005b838110156103b557818101518382015260200161039d565b50505050905001995050505050505050505060405180910390f35b3480156103dc57600080fd5b5061025b6109dc565b3480156103f157600080fd5b506104156004803603604081101561040857600080fd5b5080359060200135610b0e565b005b34801561042357600080fd5b506104416004803603602081101561043a57600080fd5b5035610cc5565b604080516001600160a01b039094168452602084019290925282820152519081900360600190f35b34801561047557600080fd5b5061047e610cf0565b6040805192835260208301919091528051918290030190f35b3480156104a357600080fd5b506101f2610d1b565b3480156104b857600080fd5b50610415600480360360208110156104cf57600080fd5b5035610d20565b3480156104e257600080fd5b506101f2610da7565b3480156104f757600080fd5b506101f2610dab565b34801561050c57600080fd5b506101f2610db1565b34801561052157600080fd5b5061052a610db7565b604080516001600160a01b039092168252519081900360200190f35b34801561055257600080fd5b506101f2610dc6565b34801561056757600080fd5b506101f2610dcc565b6104156004803603604081101561058657600080fd5b5060ff8135169060200135610dd2565b3480156105a257600080fd5b506101f2611336565b3480156105b757600080fd5b506101f2611349565b3480156105cc57600080fd5b506101f2600480360360208110156105e357600080fd5b503561134f565b3480156105f657600080fd5b5061052a611473565b34801561060b57600080fd5b506106296004803603602081101561062257600080fd5b5035611482565b6040805196875260208701959095528585019390935260608501919091521515608084015260a0830152519081900360c00190f35b34801561066a57600080fd5b506106886004803603602081101561068157600080fd5b50356114bd565b60408051958652602086019490945284840192909252151560608401526080830152519081900360a00190f35b3480156106c157600080fd5b506101f261153a565b3480156106d657600080fd5b5061052a61153f565b6103e881565b600a6020526000908152604090205481565b6003545b90565b33600090815260076020526040808220548151600680825260e08201909352606093919284919081602001602082028038833901905050905060005b600084815260086020526040902060020154811015610800576000848152600860205260408120600201805460099291908490811061077557fe5b6000918252602080832090910154835282019290925260400190206004015460ff166107f857600084815260086020526040812060020180546009929190849081106107bd57fe5b90600052602060002001548152602001908152602001600020600201548284815181106107e657fe5b60209081029190910101526001909201915b60010161073a565b509250505090565b60065481565b60076020526000908152604090205481565b610fa081565b61019081565b60008060006060600080600080610841612037565b600b8a8154811061084e57fe5b90600052602060002090600702016040518060e0016040529081600082015481526020016001820154815260200160028201548152602001600382018054806020026020016040519081016040528092919081815260200182805480156108d457602002820191906000526020600020905b8154815260200190600101908083116108c0575b5050509183525050600482015460208201526005820154604082015260069091015460ff16151560609091015290506000805b82606001515181101561099a57336000908152600760205260408120546060850151805191926009929091908590811061093d57fe5b6020026020010151815260200190815260200160002060010154141561099257600960008460600151838151811061097157fe5b6020026020010151815260200190815260200160002060050154915061099a565b600101610907565b508151602083015160408401516060850151608086015160a087015160c090970151949e50929c50909a50985096509194509092509050919395975091939597565b3360009081526007602052604090819020548151600680825260e0820190935260609283919081602001602082028038833901905050905060005b600083815260086020526040902060020154811015610b075760008381526008602052604081206002018054600992919084908110610a5257fe5b6000918252602080832090910154835282019290925260400190206004015460ff16610aff576000600b60096000600860008881526020019081526020016000206002018581548110610aa157fe5b906000526020600020015481526020019081526020016000206002015481548110610ac857fe5b90600052602060002090600702016000015490506001836001830381518110610aed57fe5b91151560209283029190910190910152505b600101610a17565b5091505090565b3360009081526007602052604090205480610b5a5760405162461bcd60e51b815260040180806020018281038252602b815260200180612160602b913960400191505060405180910390fd5b3360009081526007602090815260408083205485845260099092529091206001015414610bb85760405162461bcd60e51b81526004018080602001828103825260288152602001806121386028913960400191505060405180910390fd5b6000600b8481548110610bc757fe5b90600052602060002090600702016001015490506000610be68261154e565b6000858152600960205260409020600401805460ff191660011790559050610c14828263ffffffff61156d16565b604051909250339083156108fc029084906000818181858888f19350505050158015610c44573d6000803e3d6000fd5b50610c4f85856115ca565b336001600160a01b03167f90ebb005d68efee044927e1e77e1fd0cecc508368aa72c39250a787eed5f0a708686600b8981548110610c8957fe5b90600052602060002090600702016000015460405180848152602001838152602001828152602001935050505060405180910390a25050505050565b6008602052600090815260409020805460018201546003909201546001600160a01b03909116919083565b3360009081526007602090815260408083205483526008909152902060018101546003909101549091565b600381565b600b8181548110610d2d57fe5b906000526020600020906007020160030180549050600b8281548110610d4f57fe5b9060005260206000209060070201600401541415610da457610d7081611736565b6040805182815290517f9b4432adfda80aa6338977acb3f8b0333c7c3624dd21b7ee53988691a8d6639f9181900360200190a15b50565b4790565b60035481565b60055481565b6001546001600160a01b031681565b61012c81565b60045490565b60ff82166000908152600a60205260409020543414610e225760405162461bcd60e51b81526004018080602001828103825260408152602001806121d76040913960400191505060405180910390fd5b60ff8216610e69576040805162461bcd60e51b815260206004820152600f60248201526e125b9d985b1a59081c1b185b881a59608a1b604482015290519081900360640190fd5b3360009081526007602052604081205480610eeb5750600680543360008181526007602090815260408083208590559382526008905282812080546001600160a01b0319168317905592548084528284206001018190559151919290917fcada9e56cbe6c77c2e77f268d25d8dd60707cd62faeb72b35da2afb2d9395b059190a25b60008181526008602052604090206002015460061015610f52576040805162461bcd60e51b815260206004820152601c60248201527f4d6178696d756d20706f737369626c6520696e766573746d656e747300000000604482015290519081900360640190fd5b60005b60008281526008602052604090206002015481101561105c5760008281526008602052604081206002018054600992919084908110610f9057fe5b6000918252602080832090910154835282019290925260400190206004015460ff16611054576000828152600860205260408120600201805460ff881692600b9260099286908110610fde57fe5b90600052602060002001548152602001908152602001600020600201548154811061100557fe5b90600052602060002090600702016000015414156110545760405162461bcd60e51b815260040180806020018281038252602b81526020018061218b602b913960400191505060405180910390fd5b600101610f55565b5060005b600b548110156111dd578460ff16600b828154811061107b57fe5b9060005260206000209060070201600001541480156110d85750600b81815481106110a257fe5b906000526020600020906007020160040154600b82815481106110c157fe5b906000526020600020906007020160030180549050105b156111d5578092506110e8612076565b506040805160c081018252600c80548083526020808401878152848601898152426060870190815260006080880181815260a08901828152968252600986528982208951815594516001808701919091559351600280870191909155925160038601555160048501805460ff191691151591909117905594516005909301929092558884526008835295832093549301805495860181558252902090920191909155600b80548590811061119857fe5b60009182526020808320600c80546003600790950290920193909301805460018181018355918652929094209091015580549091019055506111dd565b600101611060565b50611211600b83815481106111ee57fe5b906000526020600020906007020160010154600354611a8c90919063ffffffff16565b60035582158015906112325750336000908152600760205260409020548314155b156112ee5761127b6103e861126f6064600b868154811061124f57fe5b906000526020600020906007020160010154611aed90919063ffffffff16565b9063ffffffff611b4616565b600084815260086020526040902060038101805490920190915554600b80546001600160a01b03909216916108fc916112c4916103e89161126f91606491908990811061124f57fe5b6040518115909202916000818181858888f193505050501580156112ec573d6000803e3d6000fd5b505b6006805460010190556040805160ff86168152905133917f9a7b89cf778462f98a9b59f99121c720927a5c37ffaaba0346f77326622a8aeb919081900360200190a250505050565b3360009081526007602052604090205490565b60045481565b60008161138d5760405162461bcd60e51b815260040180806020018281038252602b815260200180612160602b913960400191505060405180910390fd5b6000805b60008481526008602052604090206002015481101561146c57600084815260086020526040812060020180546009929190849081106113cc57fe5b6000918252602080832090910154835282019290925260400190206004015460ff16611464576000848152600860205260408120600201805461146192600b926009928690811061141957fe5b90600052602060002001548152602001908152602001600020600201548154811061144057fe5b90600052602060002090600702016001015483611a8c90919063ffffffff16565b91505b600101611391565b5092915050565b6002546001600160a01b031681565b600960205260009081526040902080546001820154600283015460038401546004850154600590950154939492939192909160ff9091169086565b60008060008060006114cd612076565b5050506000938452505060096020908152604092839020835160c0810185528154815260018201549281018390526002820154948101859052600382015460608201819052600483015460ff1615156080830181905260059093015460a090920182905292959293509091565b60fa81565b6000546001600160a01b031681565b60006115676103e861126f8460fa63ffffffff611aed16565b92915050565b6000828211156115c4576040805162461bcd60e51b815260206004820152601e60248201527f536166654d6174683a207375627472616374696f6e206f766572666c6f770000604482015290519081900360640190fd5b50900390565b60408051600280825260608083018452926020830190803883390190505090506000805b600b85815481106115fb57fe5b9060005260206000209060070201600301805490508110156116fc5783600b868154811061162557fe5b9060005260206000209060070201600301828154811061164157fe5b9060005260206000200154146116f457600b858154811061165e57fe5b9060005260206000209060070201600301818154811061167a57fe5b906000526020600020015483838151811061169157fe5b6020026020010181815250508160096000600b88815481106116af57fe5b906000526020600020906007020160030184815481106116cb57fe5b906000526020600020015481526020019081526020016000206005018190555081806001019250505b6001016115ee565b5081600b858154811061170b57fe5b9060005260206000209060070201600301908051906020019061172f9291906120ae565b5050505050565b6001600b828154811061174557fe5b60009182526020909120600790910201600601805460ff191691151591909117905561177081611bb0565b6117d5600b828154811061178057fe5b906000526020600020906007020160010154600b838154811061179f57fe5b906000526020600020906007020160020154600b84815481106117be57fe5b906000526020600020906007020160000154611f5f565b6117e5600b828154811061178057fe5b6040805160018082528183019092526060916020808301908038833950506040805160018082528183019092529293506060929150602080830190803883390190505090506002600b805490500360096000600b868154811061184457fe5b906000526020600020906007020160030160018154811061186157fe5b90600052602060002001548152602001908152602001600020600201819055506001600b805490500360096000600b868154811061189b57fe5b90600052602060002090600702016003016002815481106118b857fe5b9060005260206000200154815260200190815260200160002060020181905550600160096000600b86815481106118eb57fe5b906000526020600020906007020160030160018154811061190857fe5b9060005260206000200154815260200190815260200160002060050181905550600160096000600b868154811061193b57fe5b906000526020600020906007020160030160028154811061195857fe5b9060005260206000200154815260200190815260200160002060050181905550600b838154811061198557fe5b90600052602060002090600702016003016001815481106119a257fe5b9060005260206000200154826000815181106119ba57fe5b602002602001018181525050600b83815481106119d357fe5b90600052602060002090600702016003016002815481106119f057fe5b906000526020600020015481600081518110611a0857fe5b6020908102919091010152600b80548391906001198101908110611a2857fe5b90600052602060002090600702016003019080519060200190611a4c9291906120ae565b50600b80548291906000198101908110611a6257fe5b90600052602060002090600702016003019080519060200190611a869291906120ae565b50505050565b600082820183811015611ae6576040805162461bcd60e51b815260206004820152601b60248201527f536166654d6174683a206164646974696f6e206f766572666c6f770000000000604482015290519081900360640190fd5b9392505050565b600082611afc57506000611567565b82820282848281611b0957fe5b0414611ae65760405162461bcd60e51b81526004018080602001828103825260218152602001806121b66021913960400191505060405180910390fd5b6000808211611b9c576040805162461bcd60e51b815260206004820152601a60248201527f536166654d6174683a206469766973696f6e206279207a65726f000000000000604482015290519081900360640190fd5b6000828481611ba757fe5b04949350505050565b600b8181548110611bbd57fe5b600091825260209091206006600790920201015460ff161515600114611c145760405162461bcd60e51b81526004018080602001828103825260248152602001806121146024913960400191505060405180910390fd5b600b8181548110611c2157fe5b906000526020600020906007020160040154600b8281548110611c4057fe5b90600052602060002090600702016003018054905014611ca7576040805162461bcd60e51b815260206004820181905260248201527f4e6f7420616c6c20696e766573746f727320617265207468657265207965742e604482015290519081900360640190fd5b6000600b8281548110611cb657fe5b90600052602060002090600702016002015490506000611d0b82611cff600b8681548110611ce057fe5b906000526020600020906007020160040154600b878154811061124f57fe5b9063ffffffff61156d16565b90506000611d276103e861126f8461019063ffffffff611aed16565b90506000611d436103e861126f8561012c63ffffffff611aed16565b90506000611d5f6103e861126f8661019063ffffffff611aed16565b90506008600060096000600b8a81548110611d7657fe5b9060005260206000209060070201600301600081548110611d9357fe5b9060005260206000200154815260200190815260200160002060010154815260200190815260200160002060000160009054906101000a90046001600160a01b03166001600160a01b03166108fc869081150290604051600060405180830381858888f19350505050158015611e0d573d6000803e3d6000fd5b50600160096000600b8981548110611e2157fe5b9060005260206000209060070201600301600081548110611e3e57fe5b6000918252602080832091909101548352820192909252604090810182206004908101805460ff19169415159490941790935582548501909255805491516001600160a01b03909216916108fc86150291869190818181858888f19350505050158015611eaf573d6000803e3d6000fd5b506002546040516001600160a01b039091169083156108fc029084906000818181858888f19350505050158015611eea573d6000803e3d6000fd5b506001546040516001600160a01b039091169082156108fc029083906000818181858888f19350505050158015611f25573d6000803e3d6000fd5b506001600b8781548110611f3557fe5b60009182526020909120600790910201600601805460ff1916911515919091179055505050505050565b6040805160e08101825282815260208082018690528183018590528251600380825260808201909452600b9360608085019383019080388339505050815260036020808301829052426040808501919091526000606094850181905286546001808201808a5598835291849020875160079092020190815586840151918101919091559085015160028201559284015180516120029385019291909101906120ae565b506080820151600482015560a0820151600582015560c0909101516006909101805460ff191691151591909117905550505050565b6040518060e001604052806000815260200160008152602001600081526020016060815260200160008152602001600081526020016000151581525090565b6040518060c0016040528060008152602001600081526020016000815260200160008152602001600015158152602001600081525090565b8280548282559060005260206000209081019282156120e9579160200282015b828111156120e95782518255916020019190600101906120ce565b506120f59291506120f9565b5090565b6106fb91905b808211156120f557600081556001016120ff56fe546869732072696e672068617320616c7265616479206265656e207061696420666f722e54686520696e766573746f7220646f6573206e6f74206f776e2074686520696e766573746d656e7443616e206e6f742077697468647261772062656361757365206e6f20616e7920696e766573746d656e7473596f752063616e6e6f7420696e76657374206d6f7265207468616e206f6e636520696e206120706c616e2e536166654d6174683a206d756c7469706c69636174696f6e206f766572666c6f7754686520616d6f756e7420746f20626520696e766573746564206d75737420626520746865206f6e65207265717565737465642062792074686520706c616e2ea265627a7a72315820d497f2f437a9deaa5e2c3afbdffd6d200e6e21efddeec0235c446b478685979f64736f6c63430005100032a856840544dc26124927add067d799967eac11be13e14d82cc281ea46fa39759e1eb2b2161a492c07c5a334e48012567cba93ec021043f53c1955516a3c5a841f35035bc2b01d44bd35a1dcdc552315cffb73da35cfd60570b7b777f98036f9f10d9dd018e4cae503383c9f804c1c1603ada5856ee7894375d9b97cd8c8b27db",
  "source": "// SPDX-License-Identifier: MIT\npragma solidity >=0.4.21 <0.7.0;\n\ncontract BNB333 {\n    using SafeMath for uint256;\n\n    uint256 public constant REFERRER_CODE = 4000;\n    uint256 public constant PENALTY_STEP = 250;\n    uint256 public constant PERCENTS_DIVIDER = 1000;\n    uint256 public constant MAX_INVESTORS = 3;\n\n    uint256 public constant DEVELOPER_RATE = 400;\n    uint256 public constant RESERVE_RATE = 300;\n    uint256 public constant MARKETING_RATE = 400;\n\n    address payable public developerAccount;\n    address payable public marketingAccount;\n    address payable public reserveAccount;\n    uint256 public totalStaked;\n    uint256 public insuranceFunds;\n    uint256 public lastPayment;\n\n    uint256 public latestReferredCode;\n    mapping(address => uint256) public address2index;\n    mapping(uint256 => Investor) public index2Investor;\n    mapping(uint256 => Investment) public index2Investment;\n    mapping(uint8 => uint256) public plan2amount;\n\n    Stack[] internal stacks;\n    uint256 internal indexInvestment;\n\n    struct Stack {\n        uint256 plan;\n        uint256 amount;\n        uint256 reward;\n        uint256[] investments;\n        uint256 maxInvestors;\n        uint256 startDate;\n        bool finished;\n    }\n\n    struct Investor {\n        address payable addr;\n        uint256 referrer;\n        uint256[] investments;\n        uint256 earningsReferrals;\n    }\n\n    struct Investment {\n        uint256 indexInvestment;\n        uint256 indexInvestor;\n        uint256 stackIndex;\n        uint256 investmentDate;\n        bool payed;\n        uint256 position;\n    }\n\n    event onNewbie(address indexed _address);\n    event onInvest(address indexed _address, uint256 plan);\n    event onWithdraw(address indexed _address, uint256 _ringIndexInvested, uint256 _investmentIndex, uint256 _plan);\n    event onStackComplete(uint256 _indexRing);\n\n    constructor(address payable _developerAccount, address payable _reserveAccount, address payable _marketingAccount) public {\n        developerAccount = _developerAccount;\n        reserveAccount = _reserveAccount;\n        marketingAccount = _marketingAccount;\n        latestReferredCode = REFERRER_CODE;\n        indexInvestment = 1000;\n        _initPlans();\n    }\n\n    function _initPlans() private{\n        plan2amount[1] = 0.2 ether;\n        plan2amount[2] = 0.5 ether;\n        plan2amount[3] = 1 ether;\n        plan2amount[4] = 5 ether;\n        plan2amount[5] = 10 ether;\n        plan2amount[6] = 50 ether;\n        \n        createStack(plan2amount[0], 0 ether, 0);\n        createStack(plan2amount[1], 0.4 ether, 1);\n        createStack(plan2amount[2], 1.25 ether, 2);\n        createStack(plan2amount[3], 2.5 ether, 3);\n        createStack(plan2amount[4], 12.5 ether, 4);\n        createStack(plan2amount[5], 25 ether, 5);\n        createStack(plan2amount[6], 125 ether, 6);\n    }\n\n    function withdraw(uint256 _stackId, uint256 _investmentId) public{\n        uint256 _indexInvestor = address2index[msg.sender];\n        require(_indexInvestor != 0, \"Can not withdraw because no any investments\");\n        require(index2Investment[_investmentId].indexInvestor == address2index[msg.sender], \"The investor does not own the investment\");\n\n        uint256 _totalAmount = stacks[_stackId].amount;\n        uint256 _penaltyAmount = calculatePenalty(_totalAmount);\n\n        index2Investment[_investmentId].payed = true;\n\n        _totalAmount = _totalAmount.sub(_penaltyAmount);\n\n        msg.sender.transfer(_totalAmount);\n        \n        removeInvestmentToStack(_stackId, _investmentId);\n\n        emit onWithdraw(msg.sender, _stackId, _investmentId, stacks[_stackId].plan);\n    }\n    \n    function invest(uint8 _plan, uint256 _referrer) public payable{\n        require(msg.value == plan2amount[_plan], \"The amount to be invested must be the one requested by the plan.\");\n        require(_plan != 0, \"Invalid plan id\");\n\n        uint256 _stackInvested;\n        uint256 _indexInvestor = address2index[msg.sender];\n\n        if(_indexInvestor == 0) {\n            address2index[msg.sender] = latestReferredCode;\n            index2Investor[latestReferredCode].addr = msg.sender;\n            index2Investor[latestReferredCode].referrer = latestReferredCode;\n            _indexInvestor = latestReferredCode;\n            emit onNewbie(msg.sender);\n        }\n\n        require(index2Investor[_indexInvestor].investments.length <= 6, \"Maximum possible investments\");\n\n        for(uint256 i=0;i<index2Investor[_indexInvestor].investments.length;i++) {\n            if(!index2Investment[index2Investor[_indexInvestor].investments[i]].payed){\n                require(stacks[index2Investment[index2Investor[_indexInvestor].investments[i]].stackIndex].plan != _plan, \"You cannot invest more than once in a plan.\");\n            }\n        }\n\n        for(uint256 i=0;i<stacks.length;i++) {\n            if(stacks[i].plan == _plan && stacks[i].investments.length < stacks[i].maxInvestors){\n                _stackInvested = i;\n                Investment memory _invest = Investment(indexInvestment, _indexInvestor, _stackInvested, block.timestamp, false, 0);\n\n                index2Investment[indexInvestment] = _invest;\n                index2Investor[_indexInvestor].investments.push(indexInvestment);\n\n                stacks[_stackInvested].investments.push(indexInvestment);\n\n                //index2Investment[indexInvestment].position = stacks[_stackInvested].investments.length;\n                indexInvestment++;\n                break;\n            }\n        }\n\n        totalStaked = totalStaked.add(stacks[_stackInvested].amount);\n\n        if(_referrer != 0 && _referrer != address2index[msg.sender]) {\n            index2Investor[_referrer].earningsReferrals += stacks[_stackInvested].amount.mul(100).div(PERCENTS_DIVIDER);\n            index2Investor[_referrer].addr.transfer(stacks[_stackInvested].amount.mul(100).div(PERCENTS_DIVIDER));\n        }\n        \n        latestReferredCode++;\n        emit onInvest(msg.sender, _plan);\n    }\n\n    function changeOnStack(uint256 _indexStack) public{\n        if(stacks[_indexStack].maxInvestors == stacks[_indexStack].investments.length) {\n            divideStack(_indexStack);\n            emit onStackComplete(_indexStack);\n        }\n    }\n\n    function removeInvestmentToStack(uint256 _stackId, uint256 _investmentId) private {\n        uint256[] memory _newList = new uint256[](2);\n        uint256 index = 0;\n        for(uint256 i=0;i<stacks[_stackId].investments.length;i++) {\n            if(stacks[_stackId].investments[i] != _investmentId) {\n                _newList[index] = stacks[_stackId].investments[i];\n                index2Investment[stacks[_stackId].investments[i]].position = index;\n                index++;\n            }\n        }\n        stacks[_stackId].investments = _newList;\n    }\n\n    function createStack(uint256 _amount, uint256 _reward, uint256 _plan) private{\n        stacks.push(Stack({\n            plan : _plan,\n            amount : _amount,\n            reward: _reward,\n            maxInvestors: MAX_INVESTORS,\n            startDate : block.timestamp,\n            finished : false,\n            investments : new uint[](3)\n        }));\n    }\n\n    function divideStack(uint256 _indexStack) private{\n        stacks[_indexStack].finished = true;\n        payStack(_indexStack);\n        createStack(stacks[_indexStack].amount, stacks[_indexStack].reward, stacks[_indexStack].plan);\n        createStack(stacks[_indexStack].amount, stacks[_indexStack].reward, stacks[_indexStack].plan);\n\n        uint256[] memory investToStackOne = new uint256[](1);\n        uint256[] memory investmentToStackTwo = new uint256[](1);\n        \n        index2Investment[stacks[_indexStack].investments[1]].stackIndex = stacks.length - 2;\n        index2Investment[stacks[_indexStack].investments[2]].stackIndex = stacks.length - 1;\n\n        index2Investment[stacks[_indexStack].investments[1]].position = 1;\n        index2Investment[stacks[_indexStack].investments[2]].position = 1;\n        \n        investToStackOne[0] = stacks[_indexStack].investments[1];\n        investmentToStackTwo[0] = stacks[_indexStack].investments[2];\n\n        stacks[stacks.length - 2].investments = investToStackOne;\n        stacks[stacks.length - 1].investments = investmentToStackTwo;\n    }\n\n    function payStack(uint256 _indexStack) private{\n        require(stacks[_indexStack].finished == true, \"This ring has already been paid for.\");\n        require(stacks[_indexStack].investments.length == stacks[_indexStack].maxInvestors, \"Not all investors are there yet.\");\n\n        uint256 _reward = stacks[_indexStack].reward;\n        uint256 commissionAmount = stacks[_indexStack].amount.mul(stacks[_indexStack].maxInvestors).sub(_reward);\n        uint256 developAmount = commissionAmount.mul(DEVELOPER_RATE).div(PERCENTS_DIVIDER);\n        uint256 reserveAmount = commissionAmount.mul(RESERVE_RATE).div(PERCENTS_DIVIDER);\n        uint256 marketingAmmount = commissionAmount.mul(MARKETING_RATE).div(PERCENTS_DIVIDER);\n\n        index2Investor[index2Investment[stacks[_indexStack].investments[0]].indexInvestor].addr.transfer(_reward);\n        index2Investment[stacks[_indexStack].investments[0]].payed = true;\n        insuranceFunds += reserveAmount;\n\n        developerAccount.transfer(developAmount);\n        reserveAccount.transfer(reserveAmount);\n        marketingAccount.transfer(marketingAmmount);\n\n        stacks[_indexStack].finished = true;\n    }\n\n    function calculatePenalty(uint256 amount) pure private returns (uint256){\n        return amount.mul(PENALTY_STEP).div(PERCENTS_DIVIDER);\n    }\n\n    /************************************************ \n                            VIEWS\n    *************************************************/\n\n    function getInfoInvestment(uint256 _indexInvestment) public view returns (uint256,uint256,uint256,bool,uint256) {\n        Investment memory _investment = index2Investment[_indexInvestment];\n        return (\n            _investment.indexInvestor,\n            _investment.stackIndex,\n            _investment.investmentDate,\n            _investment.payed,\n            _investment.position\n        );\n    }\n\n    function getInfoStack(uint256 _indexStack) public view returns (uint256,uint256,uint256,uint256[] memory,uint256,uint256,bool,uint256) {\n        Stack memory stack = stacks[_indexStack];\n        uint256 position;\n        for(uint256 i=0;i<stack.investments.length;i++) {\n            if(index2Investment[stack.investments[i]].indexInvestor == address2index[msg.sender]) {\n                position = index2Investment[stack.investments[i]].position;\n                break;\n            }\n        }\n    \n        return (\n            stack.plan,\n            stack.amount,\n            stack.reward,\n            stack.investments,\n            stack.maxInvestors,\n            stack.startDate,\n            stack.finished,\n            position\n        );\n    }\n\n    function getActivePlans() public view returns (bool[] memory) {\n        uint256 investor = address2index[msg.sender];\n        bool[] memory _activePlans = new bool[](6);\n\n        for(uint256 i=0;i<index2Investor[investor].investments.length;i++) {\n            if(!index2Investment[index2Investor[investor].investments[i]].payed) {\n                uint256 _plan = stacks[index2Investment[index2Investor[investor].investments[i]].stackIndex].plan;\n                _activePlans[_plan - 1] = true;\n            }\n        }\n        return _activePlans;\n    }\n\n    function getInvestedPlans() public view returns (uint256[] memory){\n        uint256 investor = address2index[msg.sender];\n        uint index = 0;\n        uint256[] memory _investedPlans = new uint256[](6);\n\n        for(uint256 i=0;i<index2Investor[investor].investments.length;i++) {\n            if(!index2Investment[index2Investor[investor].investments[i]].payed) {\n                _investedPlans[index] = index2Investment[index2Investor[investor].investments[i]].stackIndex;\n                index++;\n            }\n        }\n        return _investedPlans;\n    }\n\n    function getContractBalance() public view returns (uint256) {\n        return address(this).balance;\n    }\n\n    function getTotalInvested(uint256 _indexInvestor) public view returns (uint256) {\n        require(_indexInvestor != 0, \"Can not withdraw because no any investments\");\n        uint256 totalAmount;\n        for(uint256 i=0;i<index2Investor[_indexInvestor].investments.length;i++) {\n            if(!index2Investment[index2Investor[_indexInvestor].investments[i]].payed) {\n                totalAmount = totalAmount.add(stacks[index2Investment[index2Investor[_indexInvestor].investments[i]].stackIndex].amount);\n            }\n        }\n\n        return totalAmount;\n    }\n\n    function getReferralInformation() public view returns (uint256,uint256) {\n        uint256 code = index2Investor[address2index[msg.sender]].referrer;\n        uint256 earnings = index2Investor[address2index[msg.sender]].earningsReferrals;\n\n        return (code, earnings);\n    }\n\n    function getIndexInvestor() public view returns (uint256){\n        return address2index[msg.sender];\n    }\n\n    function getTotalStaked() public view returns (uint256){\n        return totalStaked;\n    }\n\n    function getInsuranceFunds() public view returns (uint256){\n        return insuranceFunds;\n    }\n}\n\nlibrary SafeMath {\n\n    function add(uint256 a, uint256 b) internal pure returns (uint256) {\n        uint256 c = a + b;\n        require(c >= a, \"SafeMath: addition overflow\");\n\n        return c;\n    }\n\n    function sub(uint256 a, uint256 b) internal pure returns (uint256) {\n        require(b <= a, \"SafeMath: subtraction overflow\");\n        uint256 c = a - b;\n\n        return c;\n    }\n\n    function mul(uint256 a, uint256 b) internal pure returns (uint256) {\n        if (a == 0) {\n            return 0;\n        }\n\n        uint256 c = a * b;\n        require(c / a == b, \"SafeMath: multiplication overflow\");\n\n        return c;\n    }\n\n    function div(uint256 a, uint256 b) internal pure returns (uint256) {\n        require(b > 0, \"SafeMath: division by zero\");\n        uint256 c = a / b;\n\n        return c;\n    }\n}",
  "sourcePath": "/Users/brian.ramirez/Dev/jq-ring-bnb/contracts/BNB333.sol",
  "compiler": {
    "name": "solc",
    "version": "0.5.16+commit.9c3226ce.Emscripten.clang"
  },
  "schemaVersion": "3.3.4",
  "updatedAt": "2021-05-07T20:22:30.554Z",
  "networkType": "ethereum",
  "devdoc": {
    "methods": {}
  },
  "userdoc": {
    "methods": {
      "getInfoInvestment(uint256)": {
        "notice": "**********************************************  VIEWS************************************************"
      }
    }
  }
}