{
  "contractName": "RingBNB",
  "abi": [
    {
      "inputs": [
        {
          "internalType": "address payable",
          "name": "_developerAccount",
          "type": "address"
        },
        {
          "internalType": "address payable",
          "name": "_reserveAccount",
          "type": "address"
        },
        {
          "internalType": "address payable",
          "name": "_marketingAccount",
          "type": "address"
        }
      ],
      "payable": false,
      "stateMutability": "nonpayable",
      "type": "constructor"
    },
    {
      "anonymous": false,
      "inputs": [
        {
          "indexed": true,
          "internalType": "address",
          "name": "_address",
          "type": "address"
        },
        {
          "indexed": false,
          "internalType": "uint256",
          "name": "plan",
          "type": "uint256"
        }
      ],
      "name": "onInvest",
      "type": "event"
    },
    {
      "anonymous": false,
      "inputs": [
        {
          "indexed": false,
          "internalType": "uint256",
          "name": "_indexRing",
          "type": "uint256"
        }
      ],
      "name": "onRingComplete",
      "type": "event"
    },
    {
      "anonymous": false,
      "inputs": [
        {
          "indexed": true,
          "internalType": "address",
          "name": "_address",
          "type": "address"
        },
        {
          "indexed": false,
          "internalType": "uint256",
          "name": "_ringIndexInvested",
          "type": "uint256"
        },
        {
          "indexed": false,
          "internalType": "uint256",
          "name": "_investmentIndex",
          "type": "uint256"
        }
      ],
      "name": "onWithdraw",
      "type": "event"
    },
    {
      "constant": true,
      "inputs": [],
      "name": "DEVELOPER_RATE",
      "outputs": [
        {
          "internalType": "uint256",
          "name": "",
          "type": "uint256"
        }
      ],
      "payable": false,
      "stateMutability": "view",
      "type": "function"
    },
    {
      "constant": true,
      "inputs": [],
      "name": "MARKETING_RATE",
      "outputs": [
        {
          "internalType": "uint256",
          "name": "",
          "type": "uint256"
        }
      ],
      "payable": false,
      "stateMutability": "view",
      "type": "function"
    },
    {
      "constant": true,
      "inputs": [],
      "name": "MAX_TOP_REFERENTS",
      "outputs": [
        {
          "internalType": "uint256",
          "name": "",
          "type": "uint256"
        }
      ],
      "payable": false,
      "stateMutability": "view",
      "type": "function"
    },
    {
      "constant": true,
      "inputs": [],
      "name": "PENALTY_STEP",
      "outputs": [
        {
          "internalType": "uint256",
          "name": "",
          "type": "uint256"
        }
      ],
      "payable": false,
      "stateMutability": "view",
      "type": "function"
    },
    {
      "constant": true,
      "inputs": [],
      "name": "PERCENTS_DIVIDER",
      "outputs": [
        {
          "internalType": "uint256",
          "name": "",
          "type": "uint256"
        }
      ],
      "payable": false,
      "stateMutability": "view",
      "type": "function"
    },
    {
      "constant": true,
      "inputs": [],
      "name": "REFERRER_CODE",
      "outputs": [
        {
          "internalType": "uint256",
          "name": "",
          "type": "uint256"
        }
      ],
      "payable": false,
      "stateMutability": "view",
      "type": "function"
    },
    {
      "constant": true,
      "inputs": [],
      "name": "RESERVE_RATE",
      "outputs": [
        {
          "internalType": "uint256",
          "name": "",
          "type": "uint256"
        }
      ],
      "payable": false,
      "stateMutability": "view",
      "type": "function"
    },
    {
      "constant": true,
      "inputs": [
        {
          "internalType": "address",
          "name": "",
          "type": "address"
        }
      ],
      "name": "address2index",
      "outputs": [
        {
          "internalType": "uint256",
          "name": "",
          "type": "uint256"
        }
      ],
      "payable": false,
      "stateMutability": "view",
      "type": "function"
    },
    {
      "constant": true,
      "inputs": [],
      "name": "developerAccount",
      "outputs": [
        {
          "internalType": "address payable",
          "name": "",
          "type": "address"
        }
      ],
      "payable": false,
      "stateMutability": "view",
      "type": "function"
    },
    {
      "constant": true,
      "inputs": [
        {
          "internalType": "uint256",
          "name": "",
          "type": "uint256"
        }
      ],
      "name": "index2Investment",
      "outputs": [
        {
          "internalType": "uint256",
          "name": "indexInvestment",
          "type": "uint256"
        },
        {
          "internalType": "uint256",
          "name": "indexInvestor",
          "type": "uint256"
        },
        {
          "internalType": "uint256",
          "name": "ringIndex",
          "type": "uint256"
        },
        {
          "internalType": "uint256",
          "name": "investmentDate",
          "type": "uint256"
        },
        {
          "internalType": "bool",
          "name": "payed",
          "type": "bool"
        },
        {
          "internalType": "uint256",
          "name": "position",
          "type": "uint256"
        }
      ],
      "payable": false,
      "stateMutability": "view",
      "type": "function"
    },
    {
      "constant": true,
      "inputs": [
        {
          "internalType": "uint256",
          "name": "",
          "type": "uint256"
        }
      ],
      "name": "index2Investor",
      "outputs": [
        {
          "internalType": "address payable",
          "name": "addr",
          "type": "address"
        },
        {
          "internalType": "uint256",
          "name": "referrer",
          "type": "uint256"
        },
        {
          "internalType": "uint256",
          "name": "earningsReferrals",
          "type": "uint256"
        }
      ],
      "payable": false,
      "stateMutability": "view",
      "type": "function"
    },
    {
      "constant": true,
      "inputs": [],
      "name": "insuranceFunds",
      "outputs": [
        {
          "internalType": "uint256",
          "name": "",
          "type": "uint256"
        }
      ],
      "payable": false,
      "stateMutability": "view",
      "type": "function"
    },
    {
      "constant": true,
      "inputs": [],
      "name": "lastPayment",
      "outputs": [
        {
          "internalType": "uint256",
          "name": "",
          "type": "uint256"
        }
      ],
      "payable": false,
      "stateMutability": "view",
      "type": "function"
    },
    {
      "constant": true,
      "inputs": [],
      "name": "latestReferredCode",
      "outputs": [
        {
          "internalType": "uint256",
          "name": "",
          "type": "uint256"
        }
      ],
      "payable": false,
      "stateMutability": "view",
      "type": "function"
    },
    {
      "constant": true,
      "inputs": [],
      "name": "marketingAccount",
      "outputs": [
        {
          "internalType": "address payable",
          "name": "",
          "type": "address"
        }
      ],
      "payable": false,
      "stateMutability": "view",
      "type": "function"
    },
    {
      "constant": true,
      "inputs": [
        {
          "internalType": "uint8",
          "name": "",
          "type": "uint8"
        }
      ],
      "name": "plan2amount",
      "outputs": [
        {
          "internalType": "uint256",
          "name": "",
          "type": "uint256"
        }
      ],
      "payable": false,
      "stateMutability": "view",
      "type": "function"
    },
    {
      "constant": true,
      "inputs": [],
      "name": "reserveAccount",
      "outputs": [
        {
          "internalType": "address payable",
          "name": "",
          "type": "address"
        }
      ],
      "payable": false,
      "stateMutability": "view",
      "type": "function"
    },
    {
      "constant": true,
      "inputs": [],
      "name": "totalStaked",
      "outputs": [
        {
          "internalType": "uint256",
          "name": "",
          "type": "uint256"
        }
      ],
      "payable": false,
      "stateMutability": "view",
      "type": "function"
    },
    {
      "constant": false,
      "inputs": [
        {
          "internalType": "uint256",
          "name": "_plan",
          "type": "uint256"
        }
      ],
      "name": "withdraw",
      "outputs": [],
      "payable": false,
      "stateMutability": "nonpayable",
      "type": "function"
    },
    {
      "constant": false,
      "inputs": [
        {
          "internalType": "uint8",
          "name": "_plan",
          "type": "uint8"
        },
        {
          "internalType": "uint256",
          "name": "_referrer",
          "type": "uint256"
        }
      ],
      "name": "invest",
      "outputs": [],
      "payable": true,
      "stateMutability": "payable",
      "type": "function"
    },
    {
      "constant": false,
      "inputs": [
        {
          "internalType": "uint256",
          "name": "_indexRing",
          "type": "uint256"
        }
      ],
      "name": "changeOnRing",
      "outputs": [],
      "payable": false,
      "stateMutability": "nonpayable",
      "type": "function"
    },
    {
      "constant": true,
      "inputs": [
        {
          "internalType": "uint256",
          "name": "_indexInvestment",
          "type": "uint256"
        }
      ],
      "name": "getInfoInvestment",
      "outputs": [
        {
          "internalType": "uint256",
          "name": "",
          "type": "uint256"
        },
        {
          "internalType": "uint256",
          "name": "",
          "type": "uint256"
        },
        {
          "internalType": "uint256",
          "name": "",
          "type": "uint256"
        },
        {
          "internalType": "bool",
          "name": "",
          "type": "bool"
        },
        {
          "internalType": "uint256",
          "name": "",
          "type": "uint256"
        }
      ],
      "payable": false,
      "stateMutability": "view",
      "type": "function"
    },
    {
      "constant": true,
      "inputs": [
        {
          "internalType": "uint256",
          "name": "_indexRing",
          "type": "uint256"
        }
      ],
      "name": "getInfoRing",
      "outputs": [
        {
          "internalType": "uint256",
          "name": "",
          "type": "uint256"
        },
        {
          "internalType": "uint8",
          "name": "",
          "type": "uint8"
        },
        {
          "internalType": "uint256",
          "name": "",
          "type": "uint256"
        },
        {
          "internalType": "uint256",
          "name": "",
          "type": "uint256"
        },
        {
          "internalType": "uint256",
          "name": "",
          "type": "uint256"
        },
        {
          "internalType": "uint256[]",
          "name": "",
          "type": "uint256[]"
        },
        {
          "internalType": "uint256",
          "name": "",
          "type": "uint256"
        },
        {
          "internalType": "bool",
          "name": "",
          "type": "bool"
        },
        {
          "internalType": "uint256",
          "name": "",
          "type": "uint256"
        }
      ],
      "payable": false,
      "stateMutability": "view",
      "type": "function"
    },
    {
      "constant": true,
      "inputs": [],
      "name": "getActivePlans",
      "outputs": [
        {
          "internalType": "bool[]",
          "name": "",
          "type": "bool[]"
        }
      ],
      "payable": false,
      "stateMutability": "view",
      "type": "function"
    },
    {
      "constant": true,
      "inputs": [],
      "name": "getInvestedPlans",
      "outputs": [
        {
          "internalType": "uint256[]",
          "name": "",
          "type": "uint256[]"
        }
      ],
      "payable": false,
      "stateMutability": "view",
      "type": "function"
    },
    {
      "constant": true,
      "inputs": [],
      "name": "getContractBalance",
      "outputs": [
        {
          "internalType": "uint256",
          "name": "",
          "type": "uint256"
        }
      ],
      "payable": false,
      "stateMutability": "view",
      "type": "function"
    },
    {
      "constant": true,
      "inputs": [
        {
          "internalType": "uint256",
          "name": "_indexInvestor",
          "type": "uint256"
        }
      ],
      "name": "getTotalInvested",
      "outputs": [
        {
          "internalType": "uint256",
          "name": "",
          "type": "uint256"
        }
      ],
      "payable": false,
      "stateMutability": "view",
      "type": "function"
    },
    {
      "constant": true,
      "inputs": [],
      "name": "getReferralInformation",
      "outputs": [
        {
          "internalType": "uint256",
          "name": "",
          "type": "uint256"
        },
        {
          "internalType": "uint256",
          "name": "",
          "type": "uint256"
        }
      ],
      "payable": false,
      "stateMutability": "view",
      "type": "function"
    },
    {
      "constant": true,
      "inputs": [],
      "name": "getIndexInvestor",
      "outputs": [
        {
          "internalType": "uint256",
          "name": "",
          "type": "uint256"
        }
      ],
      "payable": false,
      "stateMutability": "view",
      "type": "function"
    },
    {
      "constant": true,
      "inputs": [],
      "name": "getPlans",
      "outputs": [
        {
          "internalType": "uint8[]",
          "name": "",
          "type": "uint8[]"
        }
      ],
      "payable": false,
      "stateMutability": "view",
      "type": "function"
    },
    {
      "constant": true,
      "inputs": [],
      "name": "getTotalStaked",
      "outputs": [
        {
          "internalType": "uint256",
          "name": "",
          "type": "uint256"
        }
      ],
      "payable": false,
      "stateMutability": "view",
      "type": "function"
    },
    {
      "constant": true,
      "inputs": [],
      "name": "getInsuranceFunds",
      "outputs": [
        {
          "internalType": "uint256",
          "name": "",
          "type": "uint256"
        }
      ],
      "payable": false,
      "stateMutability": "view",
      "type": "function"
    }
  ],
  "bytecode": "0x61014060405260006080908152600160a052600260c052600360e0526004610100526005610120526200003790600c9060066200049c565b503480156200004557600080fd5b506040516200316d3803806200316d833981810160405260608110156200006b57600080fd5b5080516020820151604090920151600080546001600160a01b038085166001600160a01b031992831617909255600280548387169083161790556001805492841692909116919091179055610fa06006556103e8600d55909190620000d86001600160e01b03620000e116565b505050620005d6565b600a6020526702c68af0bb1400007fbbc70db1b6c7afd11e79c0fb0051300458f1a3acb8ee9789d9b6b26c61ad9bc7556706f05b59d3b200007fbff4442b8ed600beeb8e26b1279a0f0d14c6edfaec26d968ee13c86f7d4c2ba855670de0b6b3a7640000600080516020620030ed83398151915255674563918244f400006000805160206200310d83398151915255678ac7230489e800006000805160206200312d833981519152556802b5e3af16b18800006000805160206200314d8339815191525560008080527f13da86008ba1c6922daee3e07db95305ef49ebced9f5467a0b8613fcc6b343e354620001e29180806001600160e01b036200037c16565b60016000819052600a6020527fbbc70db1b6c7afd11e79c0fb0051300458f1a3acb8ee9789d9b6b26c61ad9bc754620002319167058d15e176280000906003906001600160e01b036200037c16565b60026000819052600a6020527fbff4442b8ed600beeb8e26b1279a0f0d14c6edfaec26d968ee13c86f7d4c2ba85462000280916729a2241af62c0000906007906001600160e01b036200037c16565b60036000819052600a602052600080516020620030ed83398151915254620002be91678ac7230489e8000090600f906001600160e01b036200037c16565b60046000819052600a6020526000805160206200310d83398151915254620002fc9167ad78ebc5ac620000906003906001600160e01b036200037c16565b60056000819052600a6020526000805160206200312d833981519152546200033b9168015af1d78b58c40000906003906001600160e01b036200037c16565b60066000819052600a6020526000805160206200314d833981519152546200037a916806c6b935b8bbd40000906003906001600160e01b036200037c16565b565b600b604051806101000160405280600081526020018681526020018581526020018460ff1681526020016000604051908082528060200260200182016040528015620003d2578160200160208202803883390190505b5081524260208083019190915260ff8581166040808501919091526000606094850181905286546001808201808a5598835291859020875160079092020190815586850151918101919091559085015160028201559284015160038401805460ff1916919092161790556080830151805162000455926004850192019062000549565b5060a0820151600582015560c08201516006909101805460e09093015115156101000261ff001960ff90931660ff1990941693909317919091169190911790555050505050565b82805482825590600052602060002090601f01602090048101928215620005375791602002820160005b838211156200050657835183826101000a81548160ff021916908360ff1602179055509260200192600101602081600001049283019260010302620004c6565b8015620005355782816101000a81549060ff021916905560010160208160000104928301926001030262000506565b505b506200054592915062000595565b5090565b82805482825590600052602060002090810192821562000587579160200282015b82811115620005875782518255916020019190600101906200056a565b5062000545929150620005b9565b620005b691905b808211156200054557805460ff191681556001016200059c565b90565b620005b691905b80821115620005455760008155600101620005c0565b612b0780620005e66000396000f3fe6080604052600436106101e35760003560e01c806381e170de11610102578063d35b02ac11610095578063e1f2549c11610064578063e1f2549c14610626578063ec00420514610685578063f5964742146106dc578063f6ec91d5146106f1576101e3565b8063d35b02ac1461053c578063d6a63c9f14610313578063d94a862b146105fc578063dc184e7014610611576101e3565b8063a62e64a3116100d1578063a62e64a3146104c2578063a77a5173146104e8578063b36deed0146104fd578063d2ccac1714610512576101e3565b806381e170de1461045257806383ac44e61461046757806383b6cc161461049857806390d98e7e146104ad576101e3565b80632e1a7d4d1161017a5780634f437b82116101495780634f437b82146103a85780635e78b2ee146103fa5780636f9fb98a14610428578063817b1cd21461043d576101e3565b80632e1a7d4d146103285780632e79ada414610354578063434350cf1461037e57806343fe832c14610393576101e3565b806314dd60ce116101b657806314dd60ce146102b65780631e2575c3146102cb57806325ccbc43146102fe57806328e7cef514610313576101e3565b806301c234a8146101e857806304819e7b1461020f5780630917e7761461023c57806309aca69714610251575b600080fd5b3480156101f457600080fd5b506101fd610706565b60408051918252519081900360200190f35b34801561021b57600080fd5b506101fd6004803603602081101561023257600080fd5b503560ff1661070c565b34801561024857600080fd5b506101fd61071e565b34801561025d57600080fd5b50610266610725565b60408051602080825283518183015283519192839290830191858101910280838360005b838110156102a257818101518382015260200161028a565b505050509050019250505060405180910390f35b3480156102c257600080fd5b506101fd61082f565b3480156102d757600080fd5b506101fd600480360360208110156102ee57600080fd5b50356001600160a01b0316610835565b34801561030a57600080fd5b506101fd610847565b34801561031f57600080fd5b506101fd61084d565b34801561033457600080fd5b506103526004803603602081101561034b57600080fd5b5035610853565b005b34801561036057600080fd5b506103526004803603602081101561037757600080fd5b5035610ad7565b34801561038a57600080fd5b506101fd610b63565b34801561039f57600080fd5b50610266610b68565b3480156103b457600080fd5b506103d2600480360360208110156103cb57600080fd5b5035610caa565b604080516001600160a01b039094168452602084019290925282820152519081900360600190f35b34801561040657600080fd5b5061040f610cd5565b6040805192835260208301919091528051918290030190f35b34801561043457600080fd5b506101fd610d00565b34801561044957600080fd5b506101fd610d04565b34801561045e57600080fd5b506101fd610d0a565b34801561047357600080fd5b5061047c610d10565b604080516001600160a01b039092168252519081900360200190f35b3480156104a457600080fd5b506101fd610d1f565b3480156104b957600080fd5b506101fd610d25565b610352600480360360408110156104d857600080fd5b5060ff8135169060200135610d2b565b3480156104f457600080fd5b506101fd611314565b34801561050957600080fd5b506101fd611327565b34801561051e57600080fd5b506101fd6004803603602081101561053557600080fd5b503561132d565b34801561054857600080fd5b506105666004803603602081101561055f57600080fd5b5035611451565b604051808a81526020018960ff1660ff1681526020018881526020018781526020018681526020018060200185815260200184151515158152602001838152602001828103825286818151815260200191508051906020019060200280838360005b838110156105e05781810151838201526020016105c8565b505050509050019a505050505050505050505060405180910390f35b34801561060857600080fd5b50610266611622565b34801561061d57600080fd5b5061047c611698565b34801561063257600080fd5b506106506004803603602081101561064957600080fd5b50356116a7565b6040805196875260208701959095528585019390935260608501919091521515608084015260a0830152519081900360c00190f35b34801561069157600080fd5b506106af600480360360208110156106a857600080fd5b50356116e2565b60408051958652602086019490945284840192909252151560608401526080830152519081900360a00190f35b3480156106e857600080fd5b506101fd61175f565b3480156106fd57600080fd5b5061047c611764565b6103e881565b600a6020526000908152604090205481565b6003545b90565b33600090815260076020526040808220548151600680825260e08201909352606093919284919081602001602082028038833901905050905060005b600084815260086020526040902060020154811015610827576000848152600860205260408120600201805460099291908490811061079c57fe5b6000918252602080832090910154835282019290925260400190206004015460ff1661081f57600084815260086020526040812060020180546009929190849081106107e457fe5b906000526020600020015481526020019081526020016000206002015482848151811061080d57fe5b60209081029190910101526001909201915b600101610761565b509250505090565b60065481565b60076020526000908152604090205481565b610fa081565b61019081565b336000908152600760205260409020548061089f5760405162461bcd60e51b815260040180806020018281038252602b815260200180612a1c602b913960400191505060405180910390fd5b336000908152600760209081526040808320548352600890915281209080805b6002840154811015610a185785600b600960008760020185815481106108e157fe5b90600052602060002001548152602001908152602001600020600201548154811061090857fe5b600091825260209091206006600790920201015460ff1614801561095e57506009600085600201838154811061093a57fe5b6000918252602080832090910154835282019290925260400190206004015460ff16155b15610a105760016009600086600201848154811061097857fe5b9060005260206000200154815260200190815260200160002060040160006101000a81548160ff021916908315150217905550600960008560020183815481106109be57fe5b90600052602060002001548152602001908152602001600020600001549150600960008560020183815481106109f057fe5b906000526020600020015481526020019081526020016000206002015492505b6001016108bf565b506000600b8381548110610a2857fe5b90600052602060002090600702016001015490506000610a4782611773565b9050610a59828263ffffffff61179216565b604051909250339083156108fc029084906000818181858888f19350505050158015610a89573d6000803e3d6000fd5b50610a9484846117ef565b6040805185815260208101859052815133927f1b091269e929df55d64d6ea7e9cadbe4fb38dce5ccdc995767bc515030dbfbbf928290030190a250505050505050565b600b8181548110610ae457fe5b906000526020600020906007020160040180549050600b8281548110610b0657fe5b600091825260209091206003600790920201015460ff161415610b6057610b2c816119ad565b6040805182815290517f566f121466e5a8430a74f492b0ce17b7b1e4e25348236ee5afafb246c4cd85719181900360200190a15b50565b600581565b3360009081526007602052604090819020548151600680825260e0820190935260609283919081602001602082028038833901905050905060005b600083815260086020526040902060020154811015610ca35760008381526008602052604081206002018054600992919084908110610bde57fe5b6000918252602080832090910154835282019290925260400190206004015460ff16610c9b576000600b60096000600860008881526020019081526020016000206002018581548110610c2d57fe5b906000526020600020015481526020019081526020016000206002015481548110610c5457fe5b906000526020600020906007020160060160009054906101000a900460ff1690506001836001830360ff1681518110610c8957fe5b91151560209283029190910190910152505b600101610ba3565b5091505090565b6008602052600090815260409020805460018201546003909201546001600160a01b03909116919083565b3360009081526007602090815260408083205483526008909152902060018101546003909101549091565b4790565b60035481565b60055481565b6001546001600160a01b031681565b61012c81565b60045490565b60ff82166000908152600a60205260409020543414610d7b5760405162461bcd60e51b8152600401808060200182810382526040815260200180612a936040913960400191505060405180910390fd5b60ff8216610dc2576040805162461bcd60e51b815260206004820152600f60248201526e125b9d985b1a59081c1b185b881a59608a1b604482015290519081900360640190fd5b3360009081526007602052604081205480610e1b5750600680543360008181526007602090815260408083208590559382526008905282812080546001600160a01b031916909217909155915480835291206001018190555b600c5460008281526008602052604090206002015410610e82576040805162461bcd60e51b815260206004820152601c60248201527f4d6178696d756d20706f737369626c6520696e766573746d656e747300000000604482015290519081900360640190fd5b60005b600082815260086020526040902060020154811015610f915760008281526008602052604081206002018054600992919084908110610ec057fe5b6000918252602080832090910154835282019290925260400190206004015460ff16610f89576000828152600860205260408120600201805460ff881692600b9260099286908110610f0e57fe5b906000526020600020015481526020019081526020016000206002015481548110610f3557fe5b600091825260209091206006600790920201015460ff161415610f895760405162461bcd60e51b815260040180806020018281038252602b815260200180612a47602b913960400191505060405180910390fd5b600101610e85565b5060005b600b54811015611154578460ff16600b8281548110610fb057fe5b600091825260209091206006600790920201015460ff1614801561101b5750600b8181548110610fdc57fe5b6000918252602090912060036007909202010154600b805460ff909216918390811061100457fe5b906000526020600020906007020160040180549050105b1561114c5780925061102b6128e6565b506040805160c081018252600d80548083526020808401878152848601898152426060870190815260006080880181815260a08901828152968252600986528982208951815594516001808701919091559351600280870191909155925160038601555160048501805460ff191691151591909117905594516005909301929092558884526008835295832093549301805495860181558252902090920191909155600b8054859081106110db57fe5b60009182526020808320600d54600793909302016004018054600181018255908452922090910155600b80548590811061111157fe5b6000918252602080832060046007909302019190910154600d8054845260099092526040909220600501919091558054600101905550611154565b600101610f95565b50611188600b838154811061116557fe5b9060005260206000209060070201600101546003546122d890919063ffffffff16565b600355600b80548390811061119957fe5b906000526020600020906007020160010154600b83815481106111b857fe5b600091825260209091206007909102018054909101905582158015906111ed5750336000908152600760205260409020548314155b156112a9576112366103e861122a6064600b868154811061120a57fe5b90600052602060002090600702016001015461233990919063ffffffff16565b9063ffffffff61239216565b600084815260086020526040902060038101805490920190915554600b80546001600160a01b03909216916108fc9161127f916103e89161122a91606491908990811061120a57fe5b6040518115909202916000818181858888f193505050501580156112a7573d6000803e3d6000fd5b505b600680546001019055600b805433917f9a7b89cf778462f98a9b59f99121c720927a5c37ffaaba0346f77326622a8aeb91859081106112e457fe5b6000918252602091829020600660079092020101546040805160ff9092168252519081900390910190a250505050565b3360009081526007602052604090205490565b60045481565b60008161136b5760405162461bcd60e51b815260040180806020018281038252602b815260200180612a1c602b913960400191505060405180910390fd5b6000805b60008481526008602052604090206002015481101561144a57600084815260086020526040812060020180546009929190849081106113aa57fe5b6000918252602080832090910154835282019290925260400190206004015460ff16611442576000848152600860205260408120600201805461143f92600b92600992869081106113f757fe5b90600052602060002001548152602001908152602001600020600201548154811061141e57fe5b906000526020600020906007020160010154836122d890919063ffffffff16565b91505b60010161136f565b5092915050565b60008060008060006060600080600061146861291e565b600b8b8154811061147557fe5b60009182526020918290206040805161010081018252600790930290910180548352600181015483850152600281015483830152600381015460ff1660608401526004810180548351818702810187019094528084529394919360808601939283018282801561150457602002820191906000526020600020905b8154815260200190600101908083116114f0575b50505091835250506005820154602082015260069091015460ff808216604084015261010090910416151560609091015290506000805b8260800151518110156115ce57336000908152600760205260408120546080850151805191926009929091908590811061157157fe5b602002602001015181526020019081526020016000206001015414156115c65760096000846080015183815181106115a557fe5b602002602001015181526020019081526020016000206005015491506115ce565b60010161153b565b5081600001518260c0015183602001518460400151856060015186608001518760a001518860e00151888460ff1694508393509a509a509a509a509a509a509a509a509a5050509193959799909294969850565b6060600c80548060200260200160405190810160405280929190818152602001828054801561168e57602002820191906000526020600020906000905b825461010083900a900460ff1681526020600192830181810494850194909303909202910180841161165f5790505b5050505050905090565b6002546001600160a01b031681565b600960205260009081526040902080546001820154600283015460038401546004850154600590950154939492939192909160ff9091169086565b60008060008060006116f26128e6565b5050506000938452505060096020908152604092839020835160c0810185528154815260018201549281018390526002820154948101859052600382015460608201819052600483015460ff1615156080830181905260059093015460a090920182905292959293509091565b60fa81565b6000546001600160a01b031681565b600061178c6103e861122a8460fa63ffffffff61233916565b92915050565b6000828211156117e9576040805162461bcd60e51b815260206004820152601e60248201527f536166654d6174683a207375627472616374696f6e206f766572666c6f770000604482015290519081900360640190fd5b50900390565b336000908152600760209081526040808320548484526009909252909120600101541461184d5760405162461bcd60e51b81526004018080602001828103825260278152602001806129d16027913960400191505060405180910390fd5b60408051600080825260208201909252905b600b848154811061186c57fe5b9060005260206000209060070201600401805490508110156119175782600b858154811061189657fe5b906000526020600020906007020160040182815481106118b257fe5b90600052602060002001541461190f57600b84815481106118cf57fe5b906000526020600020906007020160040181815481106118eb57fe5b906000526020600020015482828151811061190257fe5b6020026020010181815250505b60010161185f565b5080600b848154811061192657fe5b9060005260206000209060070201600401908051906020019061194a92919061296b565b50600b838154811061195857fe5b906000526020600020906007020160010154600b848154811061197757fe5b90600052602060002090600702016000015403600b848154811061199757fe5b6000918252602090912060079091020155505050565b6001600b82815481106119bc57fe5b906000526020600020906007020160060160016101000a81548160ff0219169083151502179055506119ed816123fc565b611a83600b82815481106119fd57fe5b906000526020600020906007020160010154600b8381548110611a1c57fe5b906000526020600020906007020160020154600b8481548110611a3b57fe5b906000526020600020906007020160030160009054906101000a900460ff16600b8581548110611a6757fe5b600091825260209091206006600790920201015460ff166127c9565b611a93600b82815481106119fd57fe5b606080600b8381548110611aa357fe5b60009182526020909120600360079092020181015460ff161415611ba25760408051600180825281830190925290602080830190803883395050604080516001808252818301909252929450905060208083019080388339019050509050600b8381548110611b0e57fe5b9060005260206000209060070201600401600181548110611b2b57fe5b906000526020600020015482600081518110611b4357fe5b602002602001018181525050600b8381548110611b5c57fe5b9060005260206000209060070201600401600281548110611b7957fe5b906000526020600020015481600081518110611b9157fe5b60200260200101818152505061225f565b600b8381548110611baf57fe5b600091825260209091206007918202016003015460ff161415611dd657604080516003808252608082019092529060208201606080388339505060408051600380825260808201909252929450905060208201606080388339019050509050600b8381548110611c1b57fe5b9060005260206000209060070201600401600181548110611c3857fe5b906000526020600020015482600081518110611c5057fe5b602002602001018181525050600b8381548110611c6957fe5b9060005260206000209060070201600401600381548110611c8657fe5b906000526020600020015482600181518110611c9e57fe5b602002602001018181525050600b8381548110611cb757fe5b9060005260206000209060070201600401600481548110611cd457fe5b906000526020600020015482600281518110611cec57fe5b602002602001018181525050600b8381548110611d0557fe5b9060005260206000209060070201600401600281548110611d2257fe5b906000526020600020015481600081518110611d3a57fe5b602002602001018181525050600b8381548110611d5357fe5b9060005260206000209060070201600401600581548110611d7057fe5b906000526020600020015481600181518110611d8857fe5b602002602001018181525050600b8381548110611da157fe5b9060005260206000209060070201600401600681548110611dbe57fe5b906000526020600020015481600281518110611b9157fe5b6040805160078082526101008201909252906020820160e0803883395050604080516007808252610100820190925292945090506020820160e080388339019050509050600b8381548110611e2757fe5b9060005260206000209060070201600401600181548110611e4457fe5b906000526020600020015482600081518110611e5c57fe5b602002602001018181525050600b8381548110611e7557fe5b9060005260206000209060070201600401600381548110611e9257fe5b906000526020600020015482600181518110611eaa57fe5b602002602001018181525050600b8381548110611ec357fe5b9060005260206000209060070201600401600481548110611ee057fe5b906000526020600020015482600281518110611ef857fe5b602002602001018181525050600b8381548110611f1157fe5b9060005260206000209060070201600401600781548110611f2e57fe5b906000526020600020015482600381518110611f4657fe5b602002602001018181525050600b8381548110611f5f57fe5b9060005260206000209060070201600401600881548110611f7c57fe5b906000526020600020015482600481518110611f9457fe5b602002602001018181525050600b8381548110611fad57fe5b9060005260206000209060070201600401600981548110611fca57fe5b906000526020600020015482600581518110611fe257fe5b602002602001018181525050600b8381548110611ffb57fe5b9060005260206000209060070201600401600a8154811061201857fe5b90600052602060002001548260068151811061203057fe5b602002602001018181525050600b838154811061204957fe5b906000526020600020906007020160040160028154811061206657fe5b90600052602060002001548160008151811061207e57fe5b602002602001018181525050600b838154811061209757fe5b90600052602060002090600702016004016005815481106120b457fe5b9060005260206000200154816001815181106120cc57fe5b602002602001018181525050600b83815481106120e557fe5b906000526020600020906007020160040160068154811061210257fe5b90600052602060002001548160028151811061211a57fe5b602002602001018181525050600b838154811061213357fe5b9060005260206000209060070201600401600b8154811061215057fe5b90600052602060002001548160038151811061216857fe5b602002602001018181525050600b838154811061218157fe5b9060005260206000209060070201600401600c8154811061219e57fe5b9060005260206000200154816004815181106121b657fe5b602002602001018181525050600b83815481106121cf57fe5b9060005260206000209060070201600401600d815481106121ec57fe5b90600052602060002001548160058151811061220457fe5b602002602001018181525050600b838154811061221d57fe5b9060005260206000209060070201600401600e8154811061223a57fe5b90600052602060002001548160068151811061225257fe5b6020026020010181815250505b600b8054839190600119810190811061227457fe5b9060005260206000209060070201600401908051906020019061229892919061296b565b50600b805482919060001981019081106122ae57fe5b906000526020600020906007020160040190805190602001906122d292919061296b565b50505050565b600082820183811015612332576040805162461bcd60e51b815260206004820152601b60248201527f536166654d6174683a206164646974696f6e206f766572666c6f770000000000604482015290519081900360640190fd5b9392505050565b6000826123485750600061178c565b8282028284828161235557fe5b04146123325760405162461bcd60e51b8152600401808060200182810382526021815260200180612a726021913960400191505060405180910390fd5b60008082116123e8576040805162461bcd60e51b815260206004820152601a60248201527f536166654d6174683a206469766973696f6e206279207a65726f000000000000604482015290519081900360640190fd5b60008284816123f357fe5b04949350505050565b600b818154811061240957fe5b600091825260209091206006600790920201015460ff6101009091041615156001146124665760405162461bcd60e51b81526004018080602001828103825260248152602001806129f86024913960400191505060405180910390fd5b600b818154811061247357fe5b6000918252602090912060036007909202010154600b805460ff909216918390811061249b57fe5b90600052602060002090600702016004018054905014612502576040805162461bcd60e51b815260206004820181905260248201527f4e6f7420616c6c20696e766573746f727320617265207468657265207965742e604482015290519081900360640190fd5b6000600b828154811061251157fe5b9060005260206000209060070201600201549050600061256f82612563600b868154811061253b57fe5b6000918252602090912060036007909202010154600b805460ff909216918890811061120a57fe5b9063ffffffff61179216565b9050600061258b6103e861122a8461019063ffffffff61233916565b905060006125a76103e861122a8561012c63ffffffff61233916565b905060006125c36103e861122a8661019063ffffffff61233916565b90506008600060096000600b8a815481106125da57fe5b90600052602060002090600702016004016000815481106125f757fe5b9060005260206000200154815260200190815260200160002060010154815260200190815260200160002060000160009054906101000a90046001600160a01b03166001600160a01b03166108fc869081150290604051600060405180830381858888f19350505050158015612671573d6000803e3d6000fd5b50600160096000600b898154811061268557fe5b90600052602060002090600702016004016000815481106126a257fe5b6000918252602080832091909101548352820192909252604090810182206004908101805460ff19169415159490941790935582548501909255805491516001600160a01b03909216916108fc86150291869190818181858888f19350505050158015612713573d6000803e3d6000fd5b506002546040516001600160a01b039091169083156108fc029084906000818181858888f1935050505015801561274e573d6000803e3d6000fd5b506001546040516001600160a01b039091169082156108fc029083906000818181858888f19350505050158015612789573d6000803e3d6000fd5b506001600b878154811061279957fe5b906000526020600020906007020160060160016101000a81548160ff021916908315150217905550505050505050565b600b604051806101000160405280600081526020018681526020018581526020018460ff168152602001600060405190808252806020026020018201604052801561281e578160200160208202803883390190505b5081524260208083019190915260ff8581166040808501919091526000606094850181905286546001808201808a5598835291859020875160079092020190815586850151918101919091559085015160028201559284015160038401805460ff1916919092161790556080830151805161289f926004850192019061296b565b5060a0820151600582015560c08201516006909101805460e09093015115156101000261ff001960ff90931660ff1990941693909317919091169190911790555050505050565b6040518060c0016040528060008152602001600081526020016000815260200160008152602001600015158152602001600081525090565b604051806101000160405280600081526020016000815260200160008152602001600060ff1681526020016060815260200160008152602001600060ff1681526020016000151581525090565b8280548282559060005260206000209081019282156129a6579160200282015b828111156129a657825182559160200191906001019061298b565b506129b29291506129b6565b5090565b61072291905b808211156129b257600081556001016129bc56fe546865206164647265737320646f6573206e6f74206f776e2074686520696e766573746d656e74546869732072696e672068617320616c7265616479206265656e207061696420666f722e43616e206e6f742077697468647261772062656361757365206e6f20616e7920696e766573746d656e7473596f752063616e6e6f7420696e76657374206d6f7265207468616e206f6e636520696e206120706c616e2e536166654d6174683a206d756c7469706c69636174696f6e206f766572666c6f7754686520616d6f756e7420746f20626520696e766573746564206d75737420626520746865206f6e65207265717565737465642062792074686520706c616e2ea265627a7a7231582095828e4bced97f2771454bb5172e179bffe961e16d95b155332eec543e536f9664736f6c63430005100032a856840544dc26124927add067d799967eac11be13e14d82cc281ea46fa39759e1eb2b2161a492c07c5a334e48012567cba93ec021043f53c1955516a3c5a841f35035bc2b01d44bd35a1dcdc552315cffb73da35cfd60570b7b777f98036f9f10d9dd018e4cae503383c9f804c1c1603ada5856ee7894375d9b97cd8c8b27db",
  "source": "// SPDX-License-Identifier: MIT\npragma solidity >=0.4.21 <0.7.0;\n\ncontract RingBNB {\n    using SafeMath for uint256;\n\n    uint256 public constant REFERRER_CODE = 4000;\n    uint256 public constant PENALTY_STEP = 250;\n    uint256 public constant PERCENTS_DIVIDER = 1000;\n    uint256 public constant MAX_TOP_REFERENTS = 5;\n\n    uint256 public constant DEVELOPER_RATE = 400;\n    uint256 public constant RESERVE_RATE = 300;\n    uint256 public constant MARKETING_RATE = 400;\n\n    address payable public developerAccount;\n    address payable public marketingAccount;\n    address payable public reserveAccount;\n    uint256 public totalStaked;\n    uint256 public insuranceFunds;\n    uint256 public lastPayment;\n\n    uint256 public latestReferredCode;\n    mapping(address => uint256) public address2index;\n    mapping(uint256 => Investor) public index2Investor;\n    mapping(uint256 => Investment) public index2Investment;\n    mapping(uint8 => uint256) public plan2amount;\n\n    Ring[] internal rings;\n    uint8[] internal plans = [0,1,2,3,4,5];\n    uint256 internal indexInvestment;\n\n    struct Ring {\n        uint256 balance;\n        uint256 amount;\n        uint256 reward;\n        uint8 maxInvestors;\n        uint256[] investments;\n        uint256 startDate;\n        uint8 plan;\n        bool finished;\n    }\n\n    struct Investor {\n        address payable addr;\n        uint256 referrer;\n        uint256[] investments;\n        uint256 earningsReferrals;\n    }\n\n    struct Investment {\n        uint256 indexInvestment;\n        uint256 indexInvestor;\n        uint256 ringIndex;\n        uint256 investmentDate;\n        bool payed;\n        uint256 position;\n    }\n\n    event onInvest(address indexed _address, uint256 plan);\n    event onWithdraw(address indexed _address, uint256 _ringIndexInvested, uint256 _investmentIndex);\n    event onRingComplete(uint256 _indexRing);\n\n    constructor(address payable _developerAccount, address payable _reserveAccount, address payable _marketingAccount) public {\n        developerAccount = _developerAccount;\n        reserveAccount = _reserveAccount;\n        marketingAccount = _marketingAccount;\n        latestReferredCode = REFERRER_CODE;\n        indexInvestment = 1000;\n        _initPlans();\n    }\n\n    function _initPlans() private{\n        plan2amount[1] = 0.2 ether;\n        plan2amount[2] = 0.5 ether;\n        plan2amount[3] = 1 ether;\n        plan2amount[4] = 5 ether;\n        plan2amount[5] = 10 ether;\n        plan2amount[6] = 50 ether;\n        \n        createRing(plan2amount[0], 0 ether, 0, 0);\n        createRing(plan2amount[1], 0.4 ether, 3, 1);\n        createRing(plan2amount[2], 3 ether, 7, 2);\n        createRing(plan2amount[3], 10 ether, 15, 3);\n        createRing(plan2amount[4], 12.5 ether, 3, 4);\n        createRing(plan2amount[5], 25 ether, 3, 5);\n        createRing(plan2amount[6], 125 ether, 3, 6);\n    }\n\n    function withdraw(uint256 _plan) public{\n        uint256 _indexInvestor = address2index[msg.sender];\n        require(_indexInvestor != 0, \"Can not withdraw because no any investments\");\n\n        Investor storage _investor = index2Investor[address2index[msg.sender]];\n        uint256 _ringIndexInvested;\n        uint256 _investmentIndex;\n\n        for(uint256 i=0;i<_investor.investments.length;i++) {\n            if(rings[index2Investment[_investor.investments[i]].ringIndex].plan == _plan && !index2Investment[_investor.investments[i]].payed) {\n                index2Investment[_investor.investments[i]].payed = true;\n                _investmentIndex = index2Investment[_investor.investments[i]].indexInvestment;\n                _ringIndexInvested = index2Investment[_investor.investments[i]].ringIndex;\n            }\n        }\n\n        uint256 _totalAmount = rings[_ringIndexInvested].amount;\n        uint256 _penaltyAmount = calculatePenalty(_totalAmount);\n\n        _totalAmount = _totalAmount.sub(_penaltyAmount);\n\n        msg.sender.transfer(_totalAmount);\n\n        removeInvestmentToRing(_ringIndexInvested, _investmentIndex);\n\n        emit onWithdraw(msg.sender, _ringIndexInvested, _investmentIndex);\n    }\n\n    function invest(uint8 _plan, uint256 _referrer) public payable{\n        require(msg.value == plan2amount[_plan], \"The amount to be invested must be the one requested by the plan.\");\n        require(_plan != 0, \"Invalid plan id\");\n\n        uint256 _ringInvested;\n        uint256 _indexInvestor = address2index[msg.sender];\n\n        if(_indexInvestor == 0) {\n            address2index[msg.sender] = latestReferredCode;\n            index2Investor[latestReferredCode].addr = msg.sender;\n            index2Investor[latestReferredCode].referrer = latestReferredCode;\n            _indexInvestor = latestReferredCode;\n        }\n\n        require(index2Investor[_indexInvestor].investments.length < plans.length, \"Maximum possible investments\");\n\n        for(uint256 i=0;i<index2Investor[_indexInvestor].investments.length;i++) {\n            if(!index2Investment[index2Investor[_indexInvestor].investments[i]].payed){\n                require(rings[index2Investment[index2Investor[_indexInvestor].investments[i]].ringIndex].plan != _plan, \"You cannot invest more than once in a plan.\");\n            }\n        }\n\n        for(uint256 i=0;i<rings.length;i++) {\n            if(rings[i].plan == _plan && rings[i].investments.length < rings[i].maxInvestors){\n                _ringInvested = i;\n                Investment memory _invest = Investment(indexInvestment, _indexInvestor, _ringInvested, block.timestamp, false, 0);\n\n                index2Investment[indexInvestment] = _invest;\n                index2Investor[_indexInvestor].investments.push(indexInvestment);\n\n                rings[_ringInvested].investments.push(indexInvestment);\n\n                index2Investment[indexInvestment].position = rings[_ringInvested].investments.length;\n                indexInvestment++;\n                break;\n            }\n        }\n\n        totalStaked = totalStaked.add(rings[_ringInvested].amount);\n        rings[_ringInvested].balance += rings[_ringInvested].amount;\n\n        if(_referrer != 0 && _referrer != address2index[msg.sender]) {\n            index2Investor[_referrer].earningsReferrals += rings[_ringInvested].amount.mul(100).div(PERCENTS_DIVIDER);\n            index2Investor[_referrer].addr.transfer(rings[_ringInvested].amount.mul(100).div(PERCENTS_DIVIDER));\n        }\n        \n        latestReferredCode++;\n        emit onInvest(msg.sender, rings[_ringInvested].plan);\n    }\n\n    function createRing(uint256 _amount, uint256 _reward, uint8 _maxInvestor, uint8 _plan) internal{\n        rings.push(Ring({\n            balance : 0,\n            amount : _amount,\n            reward : _reward,\n            maxInvestors : _maxInvestor,\n            startDate : block.timestamp,\n            plan : _plan,\n            finished : false,\n            investments : new uint[](0)\n        }));\n    }\n\n    function removeInvestmentToRing(uint256 _ringIndex, uint256 _indexInvestment) private {\n        require(index2Investment[_indexInvestment].indexInvestor == address2index[msg.sender], \"The address does not own the investment\");\n        uint256[] memory _newList = new uint[](0);\n        for(uint256 i=0;i<rings[_ringIndex].investments.length;i++) {\n            if(rings[_ringIndex].investments[i] != _indexInvestment) {\n                _newList[i] = rings[_ringIndex].investments[i];\n            }\n        }\n        rings[_ringIndex].investments = _newList;\n        rings[_ringIndex].balance = rings[_ringIndex].balance - rings[_ringIndex].amount;\n    }\n\n    function changeOnRing(uint256 _indexRing) public{\n        if(rings[_indexRing].maxInvestors == rings[_indexRing].investments.length) {\n            divideRing(_indexRing);\n            emit onRingComplete(_indexRing);\n        }\n    }\n\n    function divideRing(uint256 _indexRing) private{\n        rings[_indexRing].finished = true;\n        payRing(_indexRing);\n        createRing(rings[_indexRing].amount, rings[_indexRing].reward, rings[_indexRing].maxInvestors, rings[_indexRing].plan);\n        createRing(rings[_indexRing].amount, rings[_indexRing].reward, rings[_indexRing].maxInvestors, rings[_indexRing].plan);\n\n        uint256[] memory investsToRingOne;\n        uint256[] memory investsToRingTwo;\n\n        if(rings[_indexRing].maxInvestors == 3) {\n            investsToRingOne = new uint256[](1);\n            investsToRingTwo = new uint256[](1);\n            investsToRingOne[0] = rings[_indexRing].investments[1];\n            investsToRingTwo[0] = rings[_indexRing].investments[2];\n        }else if(rings[_indexRing].maxInvestors == 7) {\n            investsToRingOne = new uint256[](3);\n            investsToRingTwo = new uint256[](3);\n            investsToRingOne[0] = rings[_indexRing].investments[1];\n            investsToRingOne[1] = rings[_indexRing].investments[3];\n            investsToRingOne[2] = rings[_indexRing].investments[4];\n\n            investsToRingTwo[0] = rings[_indexRing].investments[2];\n            investsToRingTwo[1] = rings[_indexRing].investments[5];\n            investsToRingTwo[2] = rings[_indexRing].investments[6];\n        }else {\n            investsToRingOne = new uint256[](7);\n            investsToRingTwo = new uint256[](7);\n            investsToRingOne[0] = rings[_indexRing].investments[1];\n            investsToRingOne[1] = rings[_indexRing].investments[3];\n            investsToRingOne[2] = rings[_indexRing].investments[4];\n            investsToRingOne[3] = rings[_indexRing].investments[7];\n            investsToRingOne[4] = rings[_indexRing].investments[8];\n            investsToRingOne[5] = rings[_indexRing].investments[9];\n            investsToRingOne[6] = rings[_indexRing].investments[10];\n\n            investsToRingTwo[0] = rings[_indexRing].investments[2];\n            investsToRingTwo[1] = rings[_indexRing].investments[5];\n            investsToRingTwo[2] = rings[_indexRing].investments[6];\n            investsToRingTwo[3] = rings[_indexRing].investments[11];\n            investsToRingTwo[4] = rings[_indexRing].investments[12];\n            investsToRingTwo[5] = rings[_indexRing].investments[13];\n            investsToRingTwo[6] = rings[_indexRing].investments[14];\n        }\n\n        rings[rings.length - 2].investments = investsToRingOne;\n        rings[rings.length - 1].investments = investsToRingTwo;\n    }\n\n    function payRing(uint256 _indexRing) private{\n        require(rings[_indexRing].finished == true, \"This ring has already been paid for.\");\n        require(rings[_indexRing].investments.length == rings[_indexRing].maxInvestors, \"Not all investors are there yet.\");\n\n        uint256 _reward = rings[_indexRing].reward;\n        uint256 commissionAmount = rings[_indexRing].amount.mul(rings[_indexRing].maxInvestors).sub(_reward);\n        uint256 developAmount = commissionAmount.mul(DEVELOPER_RATE).div(PERCENTS_DIVIDER);\n        uint256 reserveAmount = commissionAmount.mul(RESERVE_RATE).div(PERCENTS_DIVIDER);\n        uint256 marketingAmmount = commissionAmount.mul(MARKETING_RATE).div(PERCENTS_DIVIDER);\n\n        index2Investor[index2Investment[rings[_indexRing].investments[0]].indexInvestor].addr.transfer(_reward);\n        index2Investment[rings[_indexRing].investments[0]].payed = true;\n        insuranceFunds += reserveAmount;\n\n        developerAccount.transfer(developAmount);\n        reserveAccount.transfer(reserveAmount);\n        marketingAccount.transfer(marketingAmmount);\n\n        rings[_indexRing].finished = true;\n    }\n\n    function calculatePenalty(uint256 amount) pure private returns (uint256){\n        return amount.mul(PENALTY_STEP).div(PERCENTS_DIVIDER);\n    }\n    /************************************************ \n                            VIEWS\n    *************************************************/\n\n    function getInfoInvestment(uint256 _indexInvestment) public view returns (uint256,uint256,uint256,bool,uint256) {\n        Investment memory _investment = index2Investment[_indexInvestment];\n        return (\n            _investment.indexInvestor,\n            _investment.ringIndex,\n            _investment.investmentDate,\n            _investment.payed,\n            _investment.position\n        );\n    }\n\n    function getInfoRing(uint256 _indexRing) public view returns (uint256,uint8,uint256,uint256,uint256,uint256[] memory,uint256,bool,uint256) {\n        Ring memory ring = rings[_indexRing];\n        uint256 position;\n        for(uint256 i=0;i<ring.investments.length;i++) {\n            if(index2Investment[ring.investments[i]].indexInvestor == address2index[msg.sender]) {\n                position = index2Investment[ring.investments[i]].position;\n                break;\n            }\n        }\n        return (\n            ring.balance,\n            ring.plan,\n            ring.amount,\n            ring.reward,\n            ring.maxInvestors,\n            ring.investments,\n            ring.startDate,\n            ring.finished,\n            position\n        );\n    }\n\n    function getActivePlans() public view returns (bool[] memory) {\n        uint256 investor = address2index[msg.sender];\n        bool[] memory _activePlans = new bool[](6);\n\n        for(uint256 i=0;i<index2Investor[investor].investments.length;i++) {\n            if(!index2Investment[index2Investor[investor].investments[i]].payed) {\n                uint8 _plan = rings[index2Investment[index2Investor[investor].investments[i]].ringIndex].plan;\n                _activePlans[_plan - 1] = true;\n            }\n        }\n        return _activePlans;\n    }\n\n    function getInvestedPlans() public view returns (uint256[] memory){\n        uint256 investor = address2index[msg.sender];\n        uint index = 0;\n        uint256[] memory _investedPlans = new uint256[](6);\n\n        for(uint256 i=0;i<index2Investor[investor].investments.length;i++) {\n            if(!index2Investment[index2Investor[investor].investments[i]].payed) {\n                _investedPlans[index] = index2Investment[index2Investor[investor].investments[i]].ringIndex;\n                index++;\n            }\n        }\n        return _investedPlans;\n    }\n\n    function getContractBalance() public view returns (uint256) {\n        return address(this).balance;\n    }\n\n    function getTotalInvested(uint256 _indexInvestor) public view returns (uint256) {\n        require(_indexInvestor != 0, \"Can not withdraw because no any investments\");\n        uint256 totalAmount;\n        for(uint256 i=0;i<index2Investor[_indexInvestor].investments.length;i++) {\n            if(!index2Investment[index2Investor[_indexInvestor].investments[i]].payed) {\n                totalAmount = totalAmount.add(rings[index2Investment[index2Investor[_indexInvestor].investments[i]].ringIndex].amount);\n            }\n        }\n\n        return totalAmount;\n    }\n\n    function getReferralInformation() public view returns (uint256,uint256) {\n        uint256 code = index2Investor[address2index[msg.sender]].referrer;\n        uint256 earnings = index2Investor[address2index[msg.sender]].earningsReferrals;\n\n        return (code, earnings);\n    }\n\n    function getIndexInvestor() public view returns (uint256){\n        return address2index[msg.sender];\n    }\n\n    function getPlans() public view returns (uint8[] memory) {\n        return plans;\n    }\n\n    function getTotalStaked() public view returns (uint256){\n        return totalStaked;\n    }\n\n    function getInsuranceFunds() public view returns (uint256){\n        return insuranceFunds;\n    }\n}\n\nlibrary SafeMath {\n\n    function add(uint256 a, uint256 b) internal pure returns (uint256) {\n        uint256 c = a + b;\n        require(c >= a, \"SafeMath: addition overflow\");\n\n        return c;\n    }\n\n    function sub(uint256 a, uint256 b) internal pure returns (uint256) {\n        require(b <= a, \"SafeMath: subtraction overflow\");\n        uint256 c = a - b;\n\n        return c;\n    }\n\n    function mul(uint256 a, uint256 b) internal pure returns (uint256) {\n        if (a == 0) {\n            return 0;\n        }\n\n        uint256 c = a * b;\n        require(c / a == b, \"SafeMath: multiplication overflow\");\n\n        return c;\n    }\n\n    function div(uint256 a, uint256 b) internal pure returns (uint256) {\n        require(b > 0, \"SafeMath: division by zero\");\n        uint256 c = a / b;\n\n        return c;\n    }\n}",
  "sourcePath": "/Users/brian.ramirez/Dev/jq-ring-bnb/contracts/RingBNB.sol",
  "compiler": {
    "name": "solc",
    "version": "0.5.16+commit.9c3226ce.Emscripten.clang"
  },
  "schemaVersion": "3.3.4",
  "updatedAt": "2021-04-23T22:12:30.624Z",
  "devdoc": {
    "methods": {}
  },
  "userdoc": {
    "methods": {
      "getInfoInvestment(uint256)": {
        "notice": "**********************************************  VIEWS************************************************"
      }
    }
  }
}